:020000040800F2
:1000000000A00020891A0008D91A0008D91A00088F
:10001000D91A0008D91A0008D91A000800000000EF
:10002000000000000000000000000000D91A0008D5
:10003000D91A000800000000D91A0008011B0008A6
:10004000D91A0008D91A0008D91A0008D91A0008C4
:10005000D91A0008D91A0008D91A0008D91A0008B4
:10006000D91A0008D91A0008D91A0008D91A0008A4
:10007000D91A0008D91A0008D91A0008D91A000894
:10008000D91A0008D91A0008D91A0008D91A000884
:10009000D91A0008D91A0008D91A0008D91A000874
:1000A000D91A0008D91A0008D91A0008D91A000864
:1000B000D91A0008D91A0008D91A0008D91A000854
:1000C000D91A0008D91A0008D91A0008D91A000844
:1000D000D91A0008D91A0008D91A0008D91A000834
:1000E000D91A0008D91A0008D91A0008D91A000824
:1000F000D91A0008D91A0008D91A0008D91A000814
:10010000000000000000000000000000D91A0008F4
:10011000D91A0008D91A0008D91A0008D91A0008F3
:10012000D91A0008D91A0008D91A0008D91A0008E3
:10013000D91A0008D91A00080000000000000000C9
:10014000D91A0008D91A0008D91A000800000000BE
:10015000000000000000000000000000000000009F
:100160000000000000000000D91A0008D91A000899
:10017000D91A000800000000000000000000000084
:0801800000000000D91A00087C
:1001900010B5054C237833B9044B13B10448AFF3C1
:1001A00000800123237010BDD40100200000000056
:1001B0005C48000808B5034B1BB103490348AFF383
:1001C000008008BD00000000D80100205C48000845
:1001D00003685A004CBF43F0004323F00043184427
:1001E000704700BF2DE9F84329B34F1E044615465A
:1001F0003E464FF0000808EB060101EBD1714910B3
:1002000004EBC1094846FFF7E3FF0346C800083086
:100210008F42204409D0AB4209D8FFF7D9FF0138FB
:10022000A8420AD201F10108E5E7AB4205D98845A9
:1002300001D04E1EDFE74FF000094846BDE8F883C5
:10024000012807D0022807D0044B00280CBF18460D
:10025000002070470248704702487047190900089B
:100260001D0900082109000830B5234B83B004465E
:100270008D1E3BB301A92846AFF30080E8B1019978
:100280002A46FFF7AFFF0146B8B1FFF7A1FF4B6861
:10029000A064012B2CD0002B01F1040024DBFFF71C
:1002A00097FF0023C4E913030368002B11DBFFF75A
:1002B0008FFF2061002003B030BD0023092023619F
:1002C00003B030BD0D4B0E49C91AC9101846019133
:1002D000D6E7C3F30360FFF7B3FF0028206114BF24
:1002E0000020092003B030BD0123C4E91303DBE77C
:1002F000002323610520DEE700000000B44C000865
:100300007C4D00080368DA0710B5044606D49B0745
:1003100000F1480009D500F05BFC2368590709D5B6
:100320001A070ED5DB0613D510BD00F049FC236873
:100330005907F5D404F1D00000F052FC23681A07E5
:10034000F0D404F5A87000F053FC2368DB06EBD46E
:1003500004F5E870BDE8104000F08EBC092070473D
:100360000346006800B11844704700BF704700BFE3
:1003700070B504460E46316C2046FFF775FF054602
:1003800088B9326C62612369324621460120984760
:100390000828F0D0072806D12846316CFFF7E6FF81
:1003A000301D00F001FC01F00FFD00BF2DE9F0470A
:1003B0000D1DD0F80C80D0F81890074614460FCDCC
:1003C000ADF5727D0DF10C0CACE80F000FCDACE873
:1003D0000F000FCDACE80F0095E80F0002AE4FF014
:1003E000000E8CE80F00C6F800E020E0336C7B6163
:1003F0004FF4F07231467AA801F018FD3B697AAAF1
:10040000394650469847889B73642146CDE9006978
:1004100005463B463A460120C0470446E0B94FF442
:10042000F0727AA9304601F001FD082D1AD1316C25
:100430003846FFF719FF09345FFA84FA05460028A9
:10044000D4D0B36B73643A46CDE900693B464AF0B9
:1004500010010120C04700B1092528460DF5727D25
:10046000BDE8F087072DF7D12046316CFFF77EFFFE
:1004700003A800F099FB00BF406C7047F0B5CB6B50
:100480000B6401F1040C0E460546BCE80F00F9B000
:1004900001AC0FC4BCE80F000FC4BCE80F000FC4D0
:1004A0009CE80F004FF0FF3784E80F00009706E04C
:1004B0002B696A46294698470828044608D11099AE
:1004C0002846FFF7D1FE0028F2D0092079B0F0BD10
:1004D0006846FFF717FF062CF7D131462846FFF78D
:1004E00047FF00BFC160D96B8261196400221946C1
:1004F0005CE700BF70B5C66843690B64AEB90369B9
:100500000A4604460D46014602209847072805D0B2
:1005100008280FD129462046FFF72AFF3046296CCC
:10052000FFF724FF281D00F03FFB0122FFF73EFFED
:1005300001F04AFC01F048FCC2681AB1CA6B0A64B7
:10054000002233E79AE700BF704700BF8368014687
:100550000BB1012018477047012912D009D873B98F
:100560000F2A0CD800EB820218465368009A1360D9
:1005700070470339012994BF0120022070470220EF
:1005800070470846704700BF00B585B00A46002393
:1005900003A900911946FFF7DFFF039805B05DF846
:1005A00004FB00BF012912D009D873B90F2A0CD857
:1005B00000EB8200009A12684260184670470339C7
:1005C000012994BF0120022070470220704708468D
:1005D000704700BF10B584B0002303AC03920094B1
:1005E0000A461946FFF7DEFF04B010BD70B5D36BA5
:1005F000136402F1040C05460C46BCE80F00ADF58F
:100600000E7D0DF15C0EAEE80F00BCE80F00AEE809
:100610000F00BCE80F00AEE80F009CE80F004FF0A1
:10062000FF368EE80F00169610E0FFF7D3FF214645
:1006300016A8A847034616AA6946082083B9049B52
:100640009847052806460CD0092809D026996846FF
:10065000FFF70AFE03466A460C2116A8002BE4D0D9
:10066000092616A8FFF74EFE30460DF50E7D70BD2B
:100670002DE9F04FCC6C89B01E4654F8043B06942B
:100680000D46174600F00308002E79D01A0C1B0403
:1006900005938DF81D200223D2B204EB82048DF85D
:1006A0001C302B6DB8F1020F08BFAC6B13F00103C7
:1006B0000CD005A9384600F079FB18B9082009B01C
:1006C000BDE8F08F092009B0BDE8F08FD4F800A094
:1006D000BAF1000FEDD0019300F008030293022E4F
:1006E0004AD0B4F800A0B4F802900434AB6C29F0FE
:1006F000010B0F2138469B44FFF746FF834539D84D
:100700002AF001039B44834594BF002001204FEA57
:10071000490303F002030AF0010A43EA0A03012B2A
:1007200049D0022B32D0002BCCD1B8F1000F02D02F
:10073000002840F0CD800434D4F800A0BAF1000FB6
:10074000CDD105A9384600F031FB0028BAD1019B74
:10075000002BB3D00F213846FFF716FF0E210246BB
:100760003846FFF737FF38466A4A0F21FFF732FF56
:100770000720A8E70020CAE7D4F804900834B5E7BA
:100780001B0205930323ADF81C308AE7236823F08E
:10079000004BB8F1000F45D128B1029A002A5CD075
:1007A000BBF1000F74D0002B00DA04340BF1010B05
:1007B00004EB8B04C0E7B8F1000F19D1B0B1636846
:1007C0002268991C4FEAD2723FF47CAF05F15801C0
:1007D0000133049100F09080201DFFF7C1FD04ABB0
:1007E00001462846AFF3008000285BD10834A3E718
:1007F0000D213846D5F82090FFF7C6FE8145F5D18A
:10080000AB6A9C42F2D12046FFF7E2FC0F21024680
:100810003846FFF7DFFE38462A460021FFF7DAFEAA
:10082000072050E70D213846D5F82090FFF7ACFEA1
:10083000814501D02368B6E7AB6A9C42FAD1042314
:100840000022C5E90B23E318C5F828B06B632368C1
:10085000002B59DB01230193A8E705F15803CDF8DC
:100860000C8004F1040AB04691461E460EE0504644
:100870000496FFF775FD0022014604AB284609F1F6
:1008800001090AF1040AAFF30080E0B9D945EED1BD
:100890000D213846FFF778FE049BAC62C5E90803DA
:1008A000062010E781460D213846FFF76DFEB9F1AD
:1008B000020F286225D12B46049A43F82C2F6B6235
:1008C000AC620620FFE646462368DDF80C806AE746
:1008D0002046FFF77DFC04340246AC6328461446EC
:1008E000AFF3008000283FF4EDAE384622460F21DA
:1008F000FFF770FE0720E6E60D213846FFF744FEBD
:100900002862049B6B62DBE70BF1010004EB8000C3
:100910007AE700BF000000000023A9E60123A7E654
:100920000223A5E62DE9F0430646C3B015461C4652
:10093000042900F2BF80DFE801F09E57BD2D0300BF
:10094000002C40F0B780102A00F2B4800368D8066B
:1009500000F1F98020AF384600F098F9B46B3946C1
:1009600000234FF0010C0CFA03F22A42204603F157
:10097000010303D050F8042B0A600446042B01F154
:100980000401F0D13846B46300F076F9002043B09A
:10099000BDE8F083032C40F08D8094B204EB124349
:1009A000102B4FEA124500F2858003681F0700F103
:1009B000D28020AF384600F03DF9B26B07EBC5019D
:1009C00054B10B46D01A01EBC401E4001D5843F8A2
:1009D000045B8B42FAD122443846B26300F008F936
:1009E000002043B0BDE8F083012C4FEA124895B2D5
:1009F0005CD0052C5ED108EB0509B9F1200F59D860
:100A0000B8F10F0F79D9A946002D40F08A80B36B59
:100A10006DB320AF4FF0000907EBC807043F03EBAD
:100A2000C50553F8041B47F8041FAB42F9D1B9F1CF
:100A3000000F0FD06F464146102938BF102107EB39
:100A4000C101843903EBC90553F8040B41F8040FC5
:100A5000AB42F9D1012C00F08680B8F10F0FB563DD
:100A600047D9B9F1000F02D0684600F0B9F800206C
:100A700043B0BDE8F083ECB9806B23461FFA82FCDB
:100A80000124371D04FA03F212EA0C0F014604D0C8
:100A900051F8042B47F8232008460133102BF1D1DD
:100AA00015F40055E3D1B063284604E008EB0503D4
:100AB000102B03D9022043B0BDE8F083B8F10F0F2B
:100AC000F8D83368DA0706D5304623F0030340F838
:100AD000483B00F079F820AF384600F075F8B36B6A
:100AE000002D97D11D460435B563384600F068F8EF
:100AF000BDE720A800F06CF8B3E7B9F1100F40D9BA
:100B0000A9F110093368D90708D523F0010330464D
:100B100043F0020340F8483B00F05EF8B9F1000FE3
:100B200032D033685A0720D4B8F10F0F25D96F4659
:100B30003846C8F1100500F057F8002DB36B7FF769
:100B40007AAF20AF68E723F01003336006F5E87052
:100B500000F09CF8FEE623F00803036000F5A8709F
:100B600000F068F825E720AFBDE7304623F0040326
:100B700040F8D03B00F038F8D6E720A800F02CF879
:100B8000D5E74FF00009BDE7B8F10F0F3FF63FAFD3
:100B900020AF384600F020F8B36B002D7FF43AAF59
:100BA000384600F015F862E700F1340191E83800AA
:100BB0009C46A6464CF8045D90E8FF0FE54600BD54
:100BC00090EC210B704700BF80EC210B704700BFF9
:100BD00090EC200B704700BF80EC200B704700BFEB
:100BE000D0EC200B704700BFC0EC200B704700BF5B
:100BF000F0EC0201F0EC0211F0EC0221F0EC023119
:100C0000F0EC0241F0EC0251F0EC0261F0EC027108
:100C1000F0EC0281F0EC0291F0EC02A1F0EC02B1F8
:100C2000F0EC02C1F0EC02D1F0EC02E1F0EC02F1E8
:100C3000704700BFE0EC0201E0EC0211E0EC0221A1
:100C4000E0EC0231E0EC0241E0EC0251E0EC026148
:100C5000E0EC0271E0EC0281E0EC0291E0EC02A138
:100C6000E0EC02B1E0EC02C1E0EC02D1E0EC02E128
:100C7000E0EC02F1704700BFB0FC0181B0FC0191D3
:100C8000B0FC01A1B0FC01B1704700BFA0FC018124
:100C9000A0FC0191A0FC01A1A0FC01B1704700BF24
:100CA000EC4600B52DE900502DE9FF1F4FF0000381
:100CB0002DE90C0001A9FFF7E1FBDDF840E012B0DF
:100CC000704700BFEC4600B52DE900502DE9FF1F2D
:100CD0004FF000032DE90C0001A9FFF70BFCDDF834
:100CE00040E012B0704700BFEC4600B52DE900505F
:100CF0002DE9FF1F4FF000032DE90C0001A9FFF7BC
:100D00001BFCDDF840E012B0704700BFEC4600B5B8
:100D10002DE900502DE9FF1F4FF000032DE90C00D5
:100D200001ABFFF7DFFBDDF840E012B0704700BF1A
:100D3000EC4600B52DE900502DE9FF1F4FF00003F0
:100D40002DE90C0001AAFFF751FCDDF840E012B0DC
:100D5000704700BF027A03467AB9427AA2B141686D
:100D6000013A10B44272086803220C1D1A72020282
:100D70005C60000E10BC1A6070470068013A1A727D
:100D800002021A60000E7047B020704700B585B0AF
:100D9000002303AA009219460C22FFF7DDFB0398FB
:100DA00005B05DF804FB00BFF0E700BF2DE9F0439C
:100DB000054685B00E464FF000083046FFF7CAFFE3
:100DC000B028044600F0BA80070620D500F0F003F2
:100DD000802B4DD0902B36D0A02B60D0B02B74D070
:100DE000C02B00F08B8000F0F803D02B0BD100F06B
:100DF00007020132052342F4002201212846FFF7B1
:100E000091FD0028D9D0092005B0BDE8F08383000A
:100E1000DBB21F1D0DF10C0900231946CDF800901F
:100E20000D222846FFF798FB039BCDF80090600643
:100E30004CBFDF1BFF1800230D22194628460397DD
:100E4000FFF7B0FBB9E700F00D030D2BDBD003AFCC
:100E5000002300F00F02194600972846FFF77CFB9D
:100E6000002300970D2219462846FFF79BFBA4E7B5
:100E70003046FFF76FFF24022043B0F5004FC2D089
:100E800004010023A2B219462846FFF74BFD0028B3
:100E9000B9D114F4004F18BF4FF001088DE7C243D9
:100EA00002F007034FF47F621A41010702F47F62E8
:100EB0004FF0000348BF42F4804219462846FFF72E
:100EC00031FD00283FF479AF9DE7B1283BD0B2282F
:100ED00000F09380B32841D000F0FC03B42B92D0F3
:100EE00000F007020132012342F40022194628468D
:100EF000FFF718FD00283FF460AF84E7C6284AD00A
:100F0000C72854D000F0F803C02B63D0C82868D09D
:100F1000C9287FF478AF3046FFF71CFF020300F0CA
:100F20000F0002F4702201300243012105232846FC
:100F3000FFF7F8FC00283FF440AF64E7B8F1000F7A
:100F400018D0002060E73046FFF704FF0246002873
:100F50003FF459AF10F0F003C8D054E73046FFF724
:100F6000F9FE020300F00F03013302F470221A436A
:100F70000123BBE703AC43460E22414600942846BA
:100F8000FFF7EAFA009443460F2241462846FFF74E
:100F900009FB404638E73046FFF7DCFE020300F06D
:100FA0000F03013302F470221A4303239EE73046F5
:100FB000FFF7D0FE024600283FF425AF10F0F00303
:100FC0007FF421AF04212846FFF7ACFC00283FF452
:100FD000F4AE18E700F00F020132032342F420229E
:100FE00084E73046FFF7B6FE00F0F00200F00F0392
:100FF0001032013343EA023297E700230DF10C0966
:101000000D221946CDF800902846FFF7A5FA304684
:10101000FFF7A0FE02064FF002040CD5039B00F080
:101020007F00A040184403903046FFF793FE03066C
:1010300004F10704F2D4039BCDF8009000F07F0286
:10104000A24003F501731A440023039219460D22AE
:101050002846FFF7A7FAB0E610B5C26C536884B013
:101060004FF0030C08321C0208461B0E01A9019424
:1010700002928DF80CC08DF80D30FFF797FE04B08A
:1010800010BD00BF08B5FFF78FFE806C08BD00BF24
:1010900008B5FFF789FEC06CC379023300EB83000B
:1010A00008BD00BF034613F8012B002AFBD1181A14
:1010B0000138704700000000000000000000000040
:1010C00001F0FF01102A2BDB10F0070F08D010F8F9
:1010D000013B013A8B422DD010F0070F42B3F6D1FD
:1010E000F0B441EA012141EA014122F007047FF016
:1010F00000070023F0E80256083C85EA010586EA6D
:10110000010685FA47F5A3FA87F586FA47F6A5FAA8
:1011100087F68EB9EED1F0BC01F0FF0102F00702B4
:1011200032B110F8013B013A83EA010313B1F8D15F
:101130000020704701387047002D06BF3546033840
:10114000073815F0010F07D1013015F4807F02BF79
:10115000013015F4C03F0130F0BC0138704700BFCA
:1011600081F0004102E000BF83F0004330B54FEA58
:1011700041044FEA430594EA050F08BF90EA020FC5
:101180001FBF54EA000C55EA020C7FEA645C7FEA58
:10119000655C00F0E2804FEA5454D4EB5555B8BF7B
:1011A0006D420CDD2C4480EA020281EA030382EAEC
:1011B000000083EA010180EA020281EA0303362D7E
:1011C00088BF30BD11F0004F4FEA01314FF4801C51
:1011D0004CEA113102D0404261EB410113F0004F63
:1011E0004FEA03334CEA133302D0524263EB43031A
:1011F00094EA050F00F0A780A4F10104D5F1200EB8
:101200000DDB02FA0EFC22FA05F2801841F1000112
:1012100003FA0EF2801843FA05F359410EE0A5F1E6
:1012200020050EF1200E012A03FA0EFC28BF4CF017
:10123000020C43FA05F3C01851EBE37101F00045CD
:1012400007D54FF0000EDCF1000C7EEB00006EEBDA
:101250000101B1F5801F1BD3B1F5001F0CD3490864
:101260005FEA30004FEA3C0C04F101044FEA4452BB
:1012700012F5800F80F09A80BCF1004F08BF5FEA42
:10128000500C50F1000041EB045141EA050130BD22
:101290005FEA4C0C404141EB0101013C28BFB1F534
:1012A000801FE9D291F0000F04BF01460020B1FA7F
:1012B00081F308BF2033A3F10B03B3F120020CDA52
:1012C0000C3208DD02F1140CC2F10C0201FA0CF030
:1012D00021FA02F10CE002F11402D8BFC2F1200C95
:1012E00001FA02F120FA0CFCDCBF41EA0C0190404B
:1012F000E41AA2BF01EB0451294330BD6FEA040494
:101300001F3C1CDA0C340EDC04F11404C4F120027E
:1013100020FA04F001FA02F340EA030021FA04F390
:1013200045EA030130BDC4F10C04C4F1200220FAE7
:1013300002F001FA04F340EA0300294630BD21FA25
:1013400004F0294630BD94F0000F83F4801306BFEB
:1013500081F480110134013D4EE77FEA645C18BFDF
:101360007FEA655C29D094EA050F08BF90EA020F76
:1013700005D054EA000C04BF1946104630BD91EA6E
:10138000030F1EBF0021002030BD5FEA545C05D171
:101390004000494128BF41F0004130BD14F58004B0
:1013A0003CBF01F5801130BD01F0004545F0FE4124
:1013B00041F470014FF0000030BD7FEA645C1ABF59
:1013C000194610467FEA655C1CBF0B46024650EA90
:1013D000013406BF52EA033591EA030F41F40021BC
:1013E00030BD00BF90F0000F04BF0021704730B542
:1013F0004FF4806404F132044FF000054FF0000117
:1014000050E700BF90F0000F04BF0021704730B5D7
:101410004FF4806404F1320410F0004548BF4042AC
:101420004FF000013EE700BF42004FEAE2014FEA01
:1014300031014FEA02701FBF12F07F4393F07F4FDC
:1014400081F06051704732F07F4208BF704793F0DF
:101450007F4F04BF41F40021704730B54FF46074F2
:1014600001F0004521F000411CE700BF50EA0102F5
:1014700008BF704730B54FF000050AE050EA01029E
:1014800008BF704730B511F0004502D5404261EB0E
:1014900041014FF4806404F132045FEA915C3FF44F
:1014A000D8AE4FF003025FEADC0C18BF03325FEAEC
:1014B000DC0C18BF033202EBDC02C2F1200300FA9D
:1014C00003FC20FA02F001FA03FE40EA0E0021FAC2
:1014D00002F11444BDE600BF70B54FF0FF0C4CF4B0
:1014E000E06C1CEA11541DBF1CEA135594EA0C0F62
:1014F00095EA0C0F00F0DEF82C4481EA030621EA9D
:101500004C5123EA4C5350EA013518BF52EA0335D7
:1015100041F4801143F4801338D0A0FB02CE4FF089
:101520000005E1FB02E506F00042E0FB03E54FF0B9
:101530000006E1FB03569CF0000F18BF4EF0010EB1
:10154000A4F1FF04B6F5007F64F5407404D25FEAAD
:101550004E0E6D4146EB060642EAC62141EA555160
:101560004FEAC52040EA5E504FEACE2EB4F1FD0CA2
:1015700088BFBCF5E06F1ED8BEF1004F08BF5FEA20
:10158000500E50F1000041EB045170BD06F00046D2
:1015900046EA010140EA020081EA0301B4EB5C047F
:1015A000C2BFD4EB0C0541EA045170BD41F4801177
:1015B0004FF0000E013C00F3AB8014F1360FDEBF9C
:1015C000002001F0004170BDC4F10004203C35DA78
:1015D0000C341BDC04F11404C4F1200500FA05F3FB
:1015E00020FA04F001FA05F240EA020001F000429C
:1015F00021F0004110EBD37021FA04F642EB060112
:101600005EEA430E08BF20EAD37070BDC4F10C043B
:10161000C4F1200500FA04F320FA05F001FA04F2FF
:1016200040EA020001F0004110EBD37041F10001EB
:101630005EEA430E08BF20EAD37070BDC4F12005F6
:1016400000FA05F24EEA020E20FA04F301FA05F25E
:1016500043EA020321FA04F001F0004121FA04F206
:1016600020EA020000EBD3705EEA430E08BF20EAD6
:10167000D37070BD94F0000F0FD101F00046400010
:1016800041EB010111F4801F08BF013CF7D041EA92
:10169000060195F0000F18BF704703F00046520096
:1016A00043EB030313F4801F08BF013DF7D043EA67
:1016B0000603704794EA0C0F0CEA135518BF95EA1D
:1016C0000C0F0CD050EA410618BF52EA4306D1D1A4
:1016D00081EA030101F000414FF0000070BD50EAC3
:1016E000410606BF1046194652EA430619D094EA4D
:1016F0000C0F02D150EA013613D195EA0C0F05D137
:1017000052EA03361CBF104619460AD181EA03018A
:1017100001F0004141F0FE4141F470014FF0000042
:1017200070BD41F0FE4141F4780170BD70B54FF0DD
:10173000FF0C4CF4E06C1CEA11541DBF1CEA13555D
:1017400094EA0C0F95EA0C0F00F0A7F8A4EB05043F
:1017500081EA030E52EA03354FEA013100F0888036
:101760004FEA03334FF0805545EA131343EA1263FF
:101770004FEA022245EA111545EA10654FEA0026B4
:101780000EF000419D4208BF964244F1FD0404F56D
:10179000407402D25B084FEA3202B61A65EB0305C9
:1017A0005B084FEA32024FF480104FF4002CB6EB86
:1017B000020E75EB030E22BFB61A754640EA0C0006
:1017C0005B084FEA3202B6EB020E75EB030E22BF46
:1017D000B61A754640EA5C005B084FEA3202B6EB87
:1017E000020E75EB030E22BFB61A754640EA9C0046
:1017F0005B084FEA3202B6EB020E75EB030E22BF16
:10180000B61A754640EADC0055EA060E18D04FEAD3
:10181000051545EA16754FEA06164FEAC30343EA73
:1018200052734FEAC2025FEA1C1CC0D111F4801F40
:101830000BD141EA00014FF000004FF0004CB6E739
:1018400011F4801F04BF01430020B4F1FD0C88BFD8
:10185000BCF5E06F3FF6AFAEB5EB030C04BFB6EBE3
:10186000020C5FEA500C50F1000041EB045170BDD6
:101870000EF0004E4EEA113114EB5C04C2BFD4EB03
:101880000C0541EA045170BD41F480114FF0000E87
:10189000013C90E645EA060E8DE60CEA135594EA03
:1018A0000C0F08BF95EA0C0F3FF43BAF94EA0C0F06
:1018B0000AD150EA01347FF434AF95EA0C0F7FF47B
:1018C00025AF104619462CE795EA0C0F06D152EACF
:1018D00003353FF4FDAE1046194622E750EA4106B3
:1018E00018BF52EA43067FF4C5AE50EA41047FF4C4
:1018F0000DAF52EA43057FF4EBAE12E74FF0FF3C29
:1019000006E000BF4FF0010C02E000BF4FF0010CF9
:101910004DF804CD4FEA410C7FEA6C5C4FEA430C72
:1019200018BF7FEA6C5C1BD001B050EA410C0CBFC1
:1019300052EA430C91EA030F02BF90EA020F002023
:10194000704710F1000F91EA030F58BF994208BF8A
:1019500090422CBFD8176FEAE37040F00100704747
:101960004FEA410C7FEA6C5C02D150EA013C07D19E
:101970004FEA430C7FEA6C5CD6D152EA033CD3D0E9
:101980005DF8040B704700BF8446104662468C46E3
:101990001946634600E000BF01B5FFF7B7FF002816
:1019A00048BF10F1000F01BD4DF808EDFFF7F4FF3F
:1019B0000CBF012000205DF808FB00BF4DF808EDCA
:1019C000FFF7EAFF34BF012000205DF808FB00BFED
:1019D0004DF808EDFFF7E0FF94BF012000205DF80F
:1019E00008FB00BF4DF808EDFFF7CEFF94BF0120C4
:1019F00000205DF808FB00BF4DF808EDFFF7C4FFBD
:101A000034BF012000205DF808FB00BF4FEA410C05
:101A10007FEA6C5C02D150EA013C0AD14FEA430CE8
:101A20007FEA6C5C02D152EA033C02D14FF0000025
:101A300070474FF0010070474FEA410212F5001263
:101A400015D211D56FF47873B3EB625212D94FEA05
:101A5000C12343F0004343EA505311F0004F23FAEF
:101A600002F018BF404270474FF00000704750EA44
:101A7000013005D111F0004008BF6FF00040704701
:101A80004FF00000704700BFDFF834D000F026F8B8
:101A90000C480D490D4A002302E0D458C4500433C9
:101AA000C4188C42F9D30A4A0A4C002301E013609F
:101AB0000432A242FBD300F095F900F0ADF8FEE746
:101AC00000A0002000000020D4010020844D000868
:101AD000D401002008020020FEE7000080B400AF1F
:101AE000064BD3F88830054A43F47003C2F88830B7
:101AF00000BFBD465DF8047B704700BF00ED00E00D
:101B000080B400AF044B1B680133034A136000BF6D
:101B1000BD465DF8047B7047F001002080B400AF43
:101B2000094B1B68094AA2FB03239B09084A013B96
:101B30005360074B00229A60054B07221A6000BFD2
:101B4000BD465DF8047B704700000020D34D621055
:101B500010E000E080B400AF034B1B681846BD46A0
:101B60005DF8047B704700BFF001002080B584B0B1
:101B700000AF7860FFF7EEFFF860084B1A68FB686B
:101B8000D31A7A689A428CBF01230023DBB2002B60
:101B900000D0F2E700BF1037BD4680BDF001002045
:101BA00080B500AFFFF7BAFF00BF80BD80B400AFC3
:101BB000174B5B69164A43F400135361154B1B68BE
:101BC000144A9BB21360134B1B68124A43F0AA439A
:101BD00043F4AA0313600F4B5B680E4A23F47F4360
:101BE00053600C4B9B680B4A9BB29360094B9B68FC
:101BF000084A43F0AA4343F4AA039360054BDB6809
:101C0000044A9BB2D36000BFBD465DF8047B7047B9
:101C1000001002400010004880B500AFFFF7C0FF81
:101C2000FFF7C4FF094B5B69084A43F47F435361E4
:101C30006420FFF79BFF054B5B69044A23F47F4355
:101C400053616420FFF792FFECE700BF00100048EB
:101C500080B400AF01231846BD465DF8047B704791
:101C600080B582B000AF7860396000F0B5F8034607
:101C700016221A604FF0FF3318460837BD4680BD64
:101C800080B582B000AF78604FF0FF317868FFF721
:101C9000E7FFFEE780B586B000AFF860B9607A6014
:101CA00000237B610AE0AFF300800146BB685A1C49
:101CB000BA60CAB21A707B6901337B617A697B684A
:101CC0009A42F0DB7B6818461837BD4680BD80B568
:101CD00086B000AFF860B9607A6000237B6109E0EC
:101CE000BB685A1CBA601B781846AFF300807B694A
:101CF00001337B617A697B689A42F1DB7B68184625
:101D00001837BD4680BD000080B584B000AF786054
:101D1000114B1B68002B02D10F4B104A1A600E4B5F
:101D20001B68FB600C4B1A687B6813446A4693423D
:101D300007D900F051F803460C221A604FF0FF3328
:101D400006E0054B1A687B681344034A1360FB687E
:101D500018461037BD4680BDF4010020080200205F
:101D600080B483B000AF78604FF0FF3318460C3773
:101D7000BD465DF8047B704780B483B000AF7860E7
:101D800039603B684FF400525A60002318460C3704
:101D9000BD465DF8047B704780B483B000AF7860C7
:101DA000012318460C37BD465DF8047B704780B4AC
:101DB00085B000AFF860B9607A6000231846143728
:101DC000BD465DF8047B704708B5062000F0D6FCE0
:101DD0000120FFF755FF0000014B1868704700BF56
:101DE0000400002070B50D4D0D4C641BA41000269E
:101DF000A64209D10B4D0C4C02F030FD641BA4101F
:101E00000026A64205D170BD55F8043B984701361F
:101E1000EEE755F8043B98470136F2E77C4D0008A1
:101E20007C4D00087C4D0008804D00080A4491421A
:101E300000F1FF3300D1704710B511F8014B03F8E2
:101E4000014F9142F9D110BD02440346934200D1A3
:101E5000704703F8011BF9E72DE9FF4755EC104BDC
:101E6000002D0E4619462B46BBBF05F100431D460B
:101E700000232D230B700D9BDDF830A0914623F03D
:101E80002008BCBF22461446B8F1460F05D0B8F171
:101E9000450F00D10136022100E0032103AB01937D
:101EA00002AB009345EC104B5346324600F010FD58
:101EB000B8F1470F074602D119F0010F22D0B8F14F
:101EC000460F07EB060910D13B78302B0AD10022D0
:101ED000002320462946FFF767FD18B9C6F1010621
:101EE000CAF80060DAF80030994400220023204646
:101EF0002946FFF759FD08B1CDF80C903022039B1D
:101F00004B4507D3039B0E9ADB1B3846136004B086
:101F1000BDE8F087591C03911A70F0E7F7B5034646
:101F20000029B8BF494203F8022BB4BF2D222B224F
:101F3000092942702ADD0DF10704A4460A27A646A6
:101F40000A4691FBF7F607FB16153035632A04F1B4
:101F5000FF340EF8015C3146F1DC3031AEF10205A0
:101F600004F8011C441C294661450AD30DF10902FD
:101F7000A2EB0E02654588BF00221344181A03B075
:101F8000F0BD11F8012B04F8012FEDE730233031BB
:101F90008370C170031DF1E72DE9F04F2DED028B29
:101FA0008DB00C46DDF8608016461F46054601F0F0
:101FB0007DFAD0F800A05046FFF774F800230A938A
:101FC00023680593D8F8003094F818B0073323F04D
:101FD000070303F10802C8F80020D3E90023C4E98D
:101FE0001223D4E9128929F000430793CDF8188011
:101FF00008EE100A9F4BDDE906014FF0FF32FFF7B4
:1020000005FD88BBDDE906019A4B4FF0FF32FFF773
:10201000DFFC48BB0022002340464946FFF7CEFCC8
:1020200010B12D2384F84330934B9448BBF1470FF4
:1020300094BF9846804603232361059B23F0040246
:1020400022604FF00009009733460BAA214628462C
:1020500000F0D8F9013040F090804FF0FF300DB023
:10206000BDEC028BBDE8F08F42464B4640464946E8
:10207000FFF7CCFC40B14B46002BBCBF2D2384F8AE
:1020800043307F487F4BD1E763680BF0DF02069255
:102090005A1C3FD106236360059B616843F480624C
:1020A000002303930AABCDE901B309AB49EC108BD4
:1020B000009322600DF123032846FFF7CDFE069B17
:1020C0000999472B804608D1C81C02DB63689942F6
:1020D00041DDABF1020B5FFA8BFBBBF1650F20D842
:1020E00001395A4604F150000991FFF717FF0A9A87
:1020F0001318012A8146236102DC2268D20701D528
:10210000013323619DF82330002B9CD02D2384F8CC
:10211000433098E7069A472ABED1002BBCD1012351
:10212000B9E7BBF1660F18D1002963680BDD2161A7
:1021300013B92268D00702D501330B442361A1658E
:102140004FF00009DEE713B92268D20701D5023348
:10215000F4E70123F2E74FF0670B0A9B994205DB96
:1021600023682161D807EAD54B1CE7E70029D4BFD3
:10217000C1F1020201221344E0E723685A0507D4A3
:102180002369424631462846B84701302CD164E7DE
:10219000BBF1650F40F2E080D4E912010022002378
:1021A000FFF702FC002834D0374A01233146284685
:1021B000B84701303FF451AFDDE909239A4202DB11
:1021C0002368D80710D518EE103A524631462846F3
:1021D000B84701303FF441AF4FF0000804F11A094D
:1021E0000A9B013B434509DC23689B0700F10581FD
:1021F000E0680B9B9842B8BF184630E701234A4677
:1022000031462846B84701303FF427AF08F10108AE
:10221000E6E7099B002B39DC1B4A0123314628469F
:10222000B84701303FF419AFDDE90923134302D168
:102230002368D907D8D518EE103A524631462846B9
:10224000B84701303FF409AF4FF0000904F11A0A12
:10225000099B5B424B4501DC0A9B92E701235246F6
:1022600031462846B84701303FF4F7AE09F101097D
:10227000EEE700BFFFFFEF7F7C48000880480008C2
:1022800088480008844800088C4800080A9AA36D12
:102290009A42A8BF1A46002A914637DC4FF0000B3D
:1022A00029EAE97904F11A02A36D0593A3EB090366
:1022B0005B4533DCDDE909239A423BDB2368DA071F
:1022C00038D40A9B059A09999A1AA3EB01099145FA
:1022D000A8BF9146B9F1000F35DC4FF0000829EA9C
:1022E000E97904F11A0ADDE909239B1AA3EB090332
:1022F00043457FF779AF0123524631462846B84718
:1023000001303FF4AAAE08F10108ECE7134631466C
:1023100042462846B8470130C0D19EE601233146E7
:1023200028460592B84701303FF497AE059A0BF165
:10233000010BB9E718EE103A524631462846B84725
:102340000130BED189E6059A4B46424431462846C3
:10235000B8470130C1D180E60A9A012A01DCDB07C7
:1023600038D50123424631462846B84701303FF46C
:1023700074AE18EE103A524631462846B84701303E
:102380003FF46BAED4E9120100220023FFF70CFBEF
:10239000D8B90A9B08F10102013B31462846B847EB
:1023A00001300ED159E60123524631462846B8473E
:1023B00001303FF452AE08F101080A9B013B43454E
:1023C000F1DC4B4604F15002DCE64FF0000804F16A
:1023D0001A0AF2E701234246DFE701234A46314663
:1023E0002846B84701303FF438AE08F10108E368E9
:1023F0000B995B1A4345F0DCFAE64FF0000804F154
:102400001909F4E72DE9F047164699468A680B69E1
:10241000DDF820809342B8BF1346336091F8432023
:1024200007460C460AB1013333602368990642BF60
:10243000336802333360256815F0060506D104F1D0
:10244000190AE36832689B1AAB4226DC94F84320F1
:10245000131E226818BF012392062BD404F14302F5
:1024600049463846C04701301ED02368E5683268C7
:1024700003F00603042B08BFAD1AA36822690CBF42
:1024800025EAE57500259342C4BF9B1AED18002686
:102490001A34B5421AD1002008E0012352464946B9
:1024A0003846C047013003D14FF0FF30BDE8F08718
:1024B0000135C6E7E1185A1C302081F84300224458
:1024C00094F8451082F843100233C7E701232246EF
:1024D00049463846C0470130E6D00136D9E700000A
:1024E0002DE9FF470F7E0C9D782F914680460C46C4
:1024F0009A4601F1430207D8622F0AD8002F00F054
:10250000D880582F00F0A38004F1420584F842706F
:102510003AE0A7F16303152BF6D801A151F823F097
:10252000792500088D2500080925000809250008DF
:1025300009250008092500088D250008092500083F
:102540000925000809250008092500089926000822
:10255000BD2500087B26000809250008092500087C
:10256000BB26000809250008BD250008092500082C
:1025700009250008832600082B681A1D1B682A609D
:1025800004F1420584F842300123A3E02068296861
:10259000060601F104030AD50E682B60002E03DA4B
:1025A0002D23764284F843305E480A2319E00E68F2
:1025B0002B6010F0400F18BF36B2EFE72B68206891
:1025C000191D2960010601D51E6802E04606FBD5EB
:1025D0001E8854486F2F0CBF08230A23002184F85B
:1025E00043106568A560002DA2BF216821F0040199
:1025F00021600EB9002D4DD01546B6FBF3F103FB5B
:102600001167C75D05F8017D3746BB420E46F4D918
:10261000082B0BD12368DE0708D52369616899422E
:10262000DEBF302305F8013C05F1FF35521B226166
:10263000CDF800A04B4603AA21464046FFF7E2FE34
:1026400001304CD14FF0FF3004B0BDE8F087354881
:1026500081F845702968236851F8046B29601D06CC
:1026600014D5DF0744BF43F0200323601EB923685D
:1026700023F0200323601023B0E7236843F02003F6
:1026800023607823284884F84530E3E7590648BF9B
:10269000B6B2E6E71546BBE72B6826686169181DE8
:1026A000286035061B6801D5196002E07006FBD56D
:1026B0001980002323611546BAE72B681A1D2A608A
:1026C0001D68626800212846FEF7FAFC08B1401B2D
:1026D000606063682361002384F84330A8E72369BE
:1026E0002A4649464046D0470130ABD023689B0775
:1026F00013D4E068039B9842B8BF1846A4E70123AF
:10270000324649464046D04701309BD00135E36808
:1027100003995B1AAB42F2DCEBE7002504F11906E2
:10272000F5E700BF8E4800089F4800081F2938B50C
:1027300004460D4604D9162303604FF0FF3038BD20
:10274000426C12B152F821304BB9204600F030F8FB
:102750002A4601462046BDE8384000F017B8012B54
:102760000AD0591C03D1162303600120E7E7002497
:1027700042F82540284698470020E0E7024B0146F2
:102780001868FFF7D3BF00BF0400002038B5074D1D
:1027900000230446084611462B60FFF761FA431CEC
:1027A00002D12B6803B1236038BD00BF00020020B6
:1027B000FFF74EBA2DE9F74F03690C69A3420746AC
:1027C000C0F28180013C01F1140800F1140505EB11
:1027D0008403019358F8243055F8242001339A4299
:1027E0004FEA840B08EB8409B2FBF3F631D34FF0C8
:1027F000000E4046AC46F24650F8042B93B206FB5E
:1028000003E34FEA134E9BB2AAEB0303DCF800A0EC
:10281000120C13FA8AF306FB02E20093009B4FEAC4
:10282000124E92B2C2EB1A4202EB2342BDF80030C4
:10283000814543EA02434CF8043B4FEA224ADBD28B
:1028400055F80B302BB9019B043B9D421A462ED301
:102850003C61384601F0B8F8002824DB01362846F0
:102860004FF0000C58F8042BD0F800E093B2ACEB1A
:102870000303120C13FA8EF3C2EB1E4202EB234247
:102880009BB243EA0243C14540F8043B4FEA224C65
:10289000E8D255F8242005EB840322B9043B9D427D
:1028A0001A460AD33C61304603B0BDE8F08F126887
:1028B000043B002ACCD1013CC7E71268043B002A44
:1028C000F0D1013CEBE70020EEE700000000000043
:1028D0002DE9F04F2DED048B57EC106B93B0456A4A
:1028E000DDF88080069110EE10AA044609920C9340
:1028F000BB4675B9102000F0DDFD0246606220B9CC
:10290000A74BEA21A74801F067FAC0E90155056025
:10291000C560636A196851B15A684A6001239340DF
:102920008B60204600F00EFE636A00221A603B1E98
:10293000AABF002323F0004BC8F800309A4BBCBF5D
:102940000122C8F8002033EA0B031BD10C9A42F293
:102950000F731360CBF31303334300F09285219B75
:1029600063B9924B22E0924B01930833219A136092
:10297000019813B0BDEC048BBDE8F08F8B4B019335
:102980000333F3E70022002350465946FFF70CF8C3
:102990004BEC19AB804658B10C9A01231360219B74
:1029A000002B00F06B8583481860431E0193DFE71E
:1029B0004BEC10AB10AA11A9204601F0ABF8CBF3F9
:1029C0000A5508EE100A002D00F0848019EE903AA6
:1029D000C3F3130343F07F57564647F44017A5F25D
:1029E000FF35CDF83880744B002230463946FEF76B
:1029F000BBFB65A3D3E90023FEF76EFD64A3D3E917
:102A00000023FEF7B3FB064628460F46FEF7FAFC06
:102A100061A3D3E90023FEF75FFD02460B46304673
:102A20003946FEF7A3FB06460F46FFF705F80022DE
:102A30000090002330463946FEF7C0FF50B10098A1
:102A4000FEF7E0FC32463B46FEF7AEFF10B9009BB6
:102A5000013B0093009B162B5AD8009A574B03EB6F
:102A6000C203D3E9002351EC190BFEF7A7FF00289E
:102A700050D0009B013B009300230B93109B5D1BE8
:102A80006B1E059345BFC5F101030493002300238A
:102A90004CBF05930493009B002B3DDB059B009AE4
:102AA0000A921344059300230793069B092B00F217
:102AB0008980052BC4BF043B0693069BA3F1020348
:102AC000CCBF00250125032B00F28780DFE803F04F
:102AD0002D3A3859DDE910531D4405F23243202BBD
:102AE000C1BFC3F1400305F212400BFA03F326FA0B
:102AF00000F0DABFC3F1200306FA03F01843FEF733
:102B000071FC01230646A1F1F877013D0E936AE7B7
:102B10000123B2E70B90B1E7049B009A9B1A049340
:102B20005342079300230A93BFE700230893099BAE
:102B3000002B55DC0123CDE902331A4609920CE043
:102B40000123F3E70023099A0893009B134402939F
:102B50000133012B0393B8BF0123606A0022426056
:102B6000042202F114069E4241683DD9204600F03D
:102B7000A9FC019000283BD1114B02464FF4D571BE
:102B8000C0E60123DFE700BF61436F63A787D23F41
:102B9000B3C8608B288AC63FFB799F501344D33F4C
:102BA000BD480008D44800080000F07FB94800087C
:102BB000B04800088D4800080000F83F104A00089F
:102BC0005249000801250023069308954FF0FF3372
:102BD000CDE9023300221223B0E701230893F5E781
:102BE000099BCDE90233B8E7013141605200B8E7F3
:102BF000636A019A1A60039B0E2B00F29D80002DE0
:102C000000F09A80009B002B32DDB74A03F00F03DF
:102C100002EBC303D3E90089009BD8054FEA2317D1
:102C200016D5B24B51EC190BD3E90823FEF77EFD04
:102C300007F00F0782468B460325AC4E57B9424634
:102C40004B4650465946FEF771FD82468B4628E0BA
:102C50000225F2E7F90708D540464946D6E90023A0
:102C6000FEF73AFC0135804689467F100836E5E7D5
:102C700000F09B80009B9D4F5E429B4B06F00F0235
:102C800003EBC203D3E9002351EC190BFEF724FC3C
:102C9000361182468B4600230225002E7AD1002B66
:102CA000D3D10B9B002B00F08280914B0022504629
:102CB0005946FEF783FE002879D0039B002B76D07F
:102CC000029B002B36DD009B504659465F1E0022BA
:102CD000884BFEF701FC029E82468B460135284652
:102CE000FEF790FB52465B46FEF7F6FB824B002256
:102CF000FEF73CFAD046D9468246A1F1507B002E21
:102D000058D17E4B002240464946FEF72DFA5246E6
:102D10005B4680468946FEF76FFE002840F09582AC
:102D200052460BF1004340464946FEF747FE002855
:102D300040F089825BEC19AB119B002BC0F24881FB
:102D4000009A0E2A00F34481674B03EBC203D3E9D8
:102D50000089099B002B80F2D580039B002B00F398
:102D6000D18040F06F82654B002240464946FEF715
:102D7000B3FB52465B46FEF735FE039E37460028FE
:102D800040F04582019D312305F8013B009B013352
:102D9000009340E2F20705D5D7E90023FEF79CFB3C
:102DA000013501237610083777E7022579E7009F80
:102DB000039E94E701994C4B31440D91089903EB24
:102DC000C60353E90223002943D04D490020FEF7F2
:102DD000ADFC52465B46FEF7C7F9019D82468B4625
:102DE00049464046FEF728FE0646FEF70BFB024624
:102DF0000B4640464946FEF7B7F9303605F8016BF9
:102E000052465B4680468946FEF7D8FD002863D1CE
:102E100042464B4636490020FEF7A6F952465B462D
:102E2000FEF7CCFD002840F0B5800D9B9D4281D07F
:102E3000304B002250465946FEF74EFB2D4B824642
:102E40008B46404649460022FEF746FB80468946AF
:102E5000C6E750465946FEF73FFB0D9B019D0F9379
:102E600082468B4649464046FEF7E6FD0646FEF79B
:102E7000C9FA303602460B4640464946FEF774F919
:102E800005F8016B0D9B9D42804689464FF000027C
:102E900024D11B4B50465946FEF768F902460B46B3
:102EA00040464946FEF7A8FD002873D152465B46CE
:102EB00013490020FEF758F902460B4640464946A2
:102EC000FEF77CFD00283FF435AF0F9D6B1E0F937E
:102ED00015F8013C302BF8D0009749E0054BFEF780
:102EE000FBFA80468946BDE7104A0008E849000819
:102EF0000000F03F0000244000001C40000014408F
:102F00000000E03F019D56465F4642464B46304634
:102F10003946FEF70BFCFEF78FFD8246FEF772FA8C
:102F200042464B46FEF7D8FA02460B463046394633
:102F30000AF13006FEF718F905F8016B019E039FB0
:102F4000AE1BB74202460B4635D1FEF70FF942469B
:102F50004B4606460F46FEF74FFDD0B942464B465C
:102F600030463946FEF720FD10B11AF0010F10D19E
:102F7000204618EE101A00F0E5FA002300982B7096
:102F80000C9B01301860219B002B3FF4F1AC1D60BD
:102F9000EEE4009F2B461D4613F8012D392A06D179
:102FA000019A9A42F7D10199302201370A701A78B2
:102FB00001321A7090E7A64B0022FEF78DFA00222C
:102FC000002306460F46FEF7EFFC00289DD0CFE712
:102FD000089A002A00F0D780069A012A00F3BA80E6
:102FE0000E9A002A00F0B28003F23343079E049D3C
:102FF000049A1A440492059A01211A442046059223
:1030000000F058FB0746002D0CDD059B002B09DD69
:10301000AB42049AA8BF2B46D21A0492059AED1A25
:10302000D31A0593079B1BB3089B002B00F0AF80BE
:10303000002E13DD39463246204600F0FBFB18EE29
:10304000102A01460746204600F04AFB18EE101AE7
:103050008046204600F076FA08EE108A079B9A1BFD
:1030600006D018EE101A204600F0E4FB08EE100A15
:103070000121204600F01EFB0A9B002B064640F370
:1030800088801A460146204600F0D4FB069B012B9F
:10309000064640F381804FF00008336906EB830356
:1030A000186900F0B7FAC0F12000059B184410F031
:1030B0001F0000F09280C0F12003042B40F38A80AF
:1030C000C0F11C00049B03440493059B0344054486
:1030D0000593049B002B07DD18EE101A1A462046B4
:1030E00000F002FC08EE100A059B002B05DD3146BE
:1030F0001A46204600F0F8FB06460B9B002B6ED0CC
:1031000018EE100A314600F05FFC002867DA009BD9
:10311000013B18EE101A00930A220023204600F00B
:1031200033FA089B08EE100A002B00F0B18100234F
:1031300039460A22204600F027FA029B002B074658
:1031400000F38E80069B022B51DC89E0109BC3F1BB
:1031500036034BE7039B5E1E079BB342BFBF079B33
:103160000796F21A0A9BB6BF9B189E1B0A93039BF5
:10317000B8BF0026002BB7BFDDE90323DDE9033527
:103180009D1A002334E7079E049D089F3BE7079A9A
:1031900067E7069B012B18DCBAF1000F15D1CBF3C2
:1031A000130393B92BF000431B0D1B0583B1049B44
:1031B00001330493059B013305934FF001080A9BEB
:1031C000002B7FF46AAF01206FE74FF00008F6E7AD
:1031D0009846F4E73FF47DAF18461C3072E7039B36
:1031E000002B37DC069B022B34DD039B0293029BF2
:1031F0006BB931460522204600F0C6F90146064665
:1032000018EE100A00F0E0FB00283FF7BBAD099B69
:10321000019DDB4300934FF000083146204600F04B
:1032200091F9002F3FF4A4AEB8F1000F05D0B845D6
:1032300003D04146204600F085F93946204600F08B
:1032400081F995E600263746E1E70097374699E58C
:1032500000002440089B002B00F0CA80039B0293CF
:10326000002D05DD39462A46204600F03DFB074685
:10327000B8F1000F5BD07968204600F023F90546CD
:1032800028B9874B024640F2EA21FFF73BBB3A6977
:103290000232920007F10C010C30FEF7C7FD01224B
:1032A0002946204600F020FB019B03F10109DDE9DE
:1032B0000123134405930AF00103B846049307461B
:1032C000314618EE100AFFF775FA4146029000F1F8
:1032D000300A18EE100A00F077FB3A4603903146A8
:1032E000204600F08DFBC26809F1FF3B054602BB9A
:1032F000014618EE100A00F067FB024629462046F8
:10330000079200F01FF9DDE9063243EA0201049B4F
:103310000B434D460FD1BAF1390F2AD0039B002B36
:1033200002DD029B03F1310A8BF800A075E73846F5
:10333000BAE70122E2E7039B002B04DB06990B436B
:1033400004990B4322D1002AEEDD18EE101A012257
:10335000204600F0C9FA314608EE100A00F034FBAE
:10336000002803DCE0D11AF0010FDDD0BAF1390FEB
:10337000D7D139238BF800302B461D46013B15F879
:10338000012C392A71D001321A7046E7002A07DD74
:10339000BAF1390FEDD00AF101038BF800303CE7A8
:1033A000059B09F801AC994547D018EE101A002387
:1033B0000A22204600F0E8F8B84508EE100A4FF05F
:1033C00000034FF00A024146204606D100F0DCF827
:1033D0008046074609F1010972E700F0D5F8394641
:1033E000804600230A22204600F0CEF80746F1E787
:1033F000039B0293019D18EE100A3146FFF7DAF99C
:1034000000F1300A019B05F801ABEA1A029B9342D6
:1034100009DD18EE101A00230A22204600F0B4F845
:1034200008EE100AE7E7029B002BC8BF1D46019B70
:10343000D8BF01251D444FF0000818EE101A0122D4
:10344000204600F051FA314608EE100A00F0BCFAAE
:10345000002891DC02D11AF0010F8DD12B461D46B8
:1034600013F8012D302AFAD0D7E6019A9A4284D176
:10347000009B0133009331231370CEE6094BFFF715
:1034800095BA219B002B7FF46EAA074BFFF78EBAEB
:10349000029B002BAEDC069B022B3FF7A8AEA9E7F0
:1034A000524900088C480008B0480008004870479E
:1034B00058010020024B0146186800F009BC00BF0B
:1034C0000400002070B5466A04460D4676B9102007
:1034D000FFF7F0FF0246606220B9184B18486621DA
:1034E00000F07AFCC0E901660660C660666AF368AF
:1034F00083B1636ADB6853F82500B8B9012101FA8A
:1035000005F6721D9200204600F060FB60B1C0E934
:1035100001560EE021220421204600F057FB636A89
:10352000F060DB68002BE4D1002070BD026843F836
:1035300025200023C0E90333F7E700BFBD4800089A
:103540006349000870B5466A05460C4676B91020F6
:10355000FFF7B0FF0246686220B9094B09488A218B
:1035600000F03AFCC0E901660660C6603CB16B6AD7
:103570006268DB6853F82210216043F8224070BD76
:10358000BD480008634900082DE9F0410D69074670
:103590000C461E4601F1140C0020DCF8003099B2F4
:1035A00002FB01611E0C0B0C02FB063389B20130D9
:1035B00001EB034185424CF8041B4FEA1346ECDC57
:1035C0000EB3A368AB4219DC616838460131FFF7DE
:1035D00079FF804628B902460C4B0D48B52100F012
:1035E000FBFB2269023204F10C0192000C30FEF761
:1035F0001DFC21463846FFF7A5FF444604EB850332
:1036000001355E6125612046BDE8F0815249000820
:1036100063490008030C1B04D3B90004102310F005
:103620007F4F04BF0002083310F0704F04BF000149
:10363000043310F0404F04BF80000233002805DB44
:1036400010F0804F03F1010308BF20231846704794
:103650000023E4E7036813F0070201460BD0DA0702
:1036600023D4980749BF5B089B0801200B605CBF0F
:103670000B600220704798B2A8B91B0C1020DAB278
:103680000AB908301B0A1A0704BF1B0904309A073D
:1036900004BF9B080230DA0703D45B0800F1010085
:1036A00005D00B6070471046E9E7002070472020E6
:1036B0007047000010B50C460121FFF703FF0246DA
:1036C00028B9054B05484FF4A07100F085FB012394
:1036D0004461036110BD00BF5249000863490008FE
:1036E0002DE9F04F91460A69D9F810309A42B8BFD7
:1036F0000B460C46BCBF4C4699462769D9F810A02A
:10370000A368616807EB0A06B34285B0B8BF013110
:10371000FFF7D8FE30B90246444B454840F25D11F0
:1037200000F05AFB00F1140505EB86082B46002239
:10373000434521D304F1140303EB870709F1140374
:1037400003EB8A0202923A1B153A22F0030204327A
:1037500004F115018F4238BF04220192029A0393AB
:103760009A420CD8002E03DD58F8043D002B5AD0A5
:10377000066105B0BDE8F08F43F8042BD8E7B3F835
:1037800000A0BAF1000F24D004F1140EA9464FF0A6
:10379000000C5EF8042BD9F800101FFA82FB89B2E6
:1037A0000AFB0B114FEA124BD9F8002061444FEA93
:1037B000124C0AFB0BC202EB114289B241EA0241F0
:1037C000774549F8041B4FEA124CE2D8019A45F8B4
:1037D00002C0039AB2F802900433B9F1000F20D06E
:1037E000296804F1140CAE464FF0000ABCF800B092
:1037F000BEF8022009FB0B22924489B241EA0A4139
:103800004EF8041B5CF8042BBEF80010120C09FBE8
:10381000021101EB1A4167454FEA114AE6D8019AB5
:10382000A95004359AE7013E9CE700BF52490008C1
:10383000634900082DE9F843154612F003020646D5
:103840000F4607D0254C013A002354F82220FFF7F9
:103850009BFE0746AD103DD0746A7CB91020FFF77F
:1038600029FE0246706228B91D4B1E484FF4D771DD
:1038700000F0B2FAC0E901440460C460D6F82480C4
:10388000D8F808404CB940F271213046FFF712FFDA
:103890000023C8F80800044603604FF00009EB0756
:1038A0000AD5394622463046FFF71AFF3946804688
:1038B0003046FFF747FE47466D100BD0206838B9F9
:1038C000224621463046FFF70BFF2060C0F80090EB
:1038D0000446E4E73846BDE8F88300BFD84A00084C
:1038E000BD480008634900082DE9F0470C464968C7
:1038F000236903EB6218A368074691464FEA621AF0
:1039000008F10106B3420BDB3846FFF7DBFD054645
:1039100048B902462A4B2B4840F2D91100F05CFA14
:1039200001315B00EEE7002300F1140100F1100209
:103930001846534537DB20692AEAEA7A04F1140372
:1039400019F01F0901EB8A0103EB80002FD0C9F1A8
:10395000200E8A464FF0000C1A6802FA09F242EA79
:103960000C024AF8042B53F8042B984222FA0EFC5E
:10397000F2D8031B153B23F00303043304F11502B3
:10398000904238BF042341F803C0BCF1000F01D0BE
:1039900008F10206013E38462E612146FFF7D2FDAE
:1039A0002846BDE8F08742F8040F0133C1E7043927
:1039B00053F8042B41F8042F9842F9D8EAE700BFE6
:1039C000524900086349000830B502690C69121BAE
:1039D0000ED100F11403143103EB840001EB8401D8
:1039E00050F8045D51F8044DA54203D005D30122DF
:1039F000104630BD8342F3D3FAE74FF0FF32F7E7CA
:103A00002DE9F84F0C460646114620469046FFF732
:103A1000DBFF051E10D129463046FFF753FD30B9B4
:103A20003A4B024640F23221394800F0D5F90123E1
:103A3000C0E90435BDE8F88FA4BF4346A046304630
:103A4000D8F80410A6BF1C4600250125FFF73AFD53
:103A500020B92E4B02464FF41071E5E7D8F81070EC
:103A60002669C56004F1140908F1140500F1140E6B
:103A700005EB870C09EB860608F11002F2460021DF
:103A800059F8043B52F804BF1FFA83F811FA8BF17E
:103A90001B0CA1EB0808C3EB1B4303EB28431FFAE5
:103AA00088F819144E4548EA03434AF8043BE7D81E
:103AB000331B153B23F0030304331534A64238BFF0
:103AC00004231D4473449E462E4666450ED30CF1D6
:103AD0000302521B22F00302033DAC4538BF002213
:103AE0001A4452F8043D7BB10761A3E756F8048BF2
:103AF00011FA88F2141404EB184492B242EA044218
:103B00004EF8042B2114E0E7013FEAE75249000890
:103B1000634900082DE9F7438946012157EC106BF2
:103B20009046FFF7CFFC044630B90246254B2648A5
:103B300040F20A3100F050F9C7F30A55C7F31303F6
:103B400035BB002E019328D068460096FFF782FD12
:103B5000009900B3019AC0F1200302FA03F30B436A
:103B6000C24063610192019BA361002B14BF02223A
:103B700001222261D5B1A5F233450544C9F80050B0
:103B8000C0F13500C8F80000204603B0BDE8F0835E
:103B900043F48013D5E76161E5E701A8FFF75AFD1B
:103BA000019B6361012222612030E3E704EB820381
:103BB000A0F23240C9F800001869FFF72BFDC0EBF6
:103BC0004210DFE7524900086349000837B5A1FBFE
:103BD00002244CB91146019200F07AF8019A054688
:103BE00030B9284603B030BD0C2202600025F8E74A
:103BF0002146FEF729F9F4E737B5002944D051F8FA
:103C0000043C0190002BA1F10404B8BFE41800F0BB
:103C100025F91E4A0198136833B96360146003B034
:103C2000BDE8304000F020B9A34208D925686119E9
:103C30008B4201BF19685B6849192160EDE71A469C
:103C40005B680BB1A342FAD911685518A5420BD194
:103C5000246821445418A3421160E0D11C685B68B9
:103C6000536021441160DAE702D90C230360D6E7E0
:103C7000256861198B4204BF19685B68636004BFE3
:103C8000491921605460CAE703B030BDF801002033
:103C900070B50E4E0C463168054611B900F08CF82F
:103CA00030602146284600F087F8431C0AD0C41C27
:103CB00024F00304A04207D0211A284600F07CF823
:103CC000013001D14FF0FF34204670BDFC010020CF
:103CD0002DE9F041CD1C25F0030508350C2D38BF2A
:103CE0000C25002D074601DBA94205D90C233B60BA
:103CF00000263046BDE8F0812E4E00F0AFF8336864
:103D00001C4634BB29463846FFF7C2FF431C044615
:103D10004DD134682646002E40D1236831463846BE
:103D200004EB030800F048F880453AD121680335D8
:103D30006D1A25F0030508350C2D38BF0C252946D2
:103D40003846FFF7A5FF01302BD023682B442360B2
:103D50000EE02268521B1ED40B2A16D96119A34209
:103D6000256018BF5960636808BF316062514B60BD
:103D7000384604F10B0600F077F826F00706231DFD
:103D8000F21AB6D09B1BA350B3E76268A3420CBFE4
:103D900032605A60ECE723466468B2E734467668DE
:103DA000B9E70C233B60384600F05EF8A1E72560D8
:103DB000DEE700BFF801002038B5064D00230446B9
:103DC00008462B60FDF7A0FF431C02D12B6803B10E
:103DD000236038BD000200201FB514461A46094B67
:103DE0001B680546D8684CB1074B0091CDE90134FA
:103DF00006492B4600F00EF8FDF7E6FF044B1C4683
:103E0000F3E700BF04000020E44A0008F14A00087C
:103E10001F4B00080EB403B5014603AB054853F829
:103E2000042B0068019300F04FF802B05DF804EB3A
:103E300003B070470400002082B001B901A942B16B
:103E40004BB113780B601278101E18BF012002B01E
:103E500070471046FBE76FF00100F8E7014800F0FB
:103E6000E9BB00BF04020020014800F0E4BB00BF32
:103E7000040200209368013B002B10B4936008DA21
:103E80009469A34201DB0A2903D15DF8044B00F0D9
:103E90004BB91368581C1060197008465DF8044B44
:103EA0007047F8B506460F461446D518AC4201D106
:103EB000002007E014F8011B3A463046FFF7DAFF0E
:103EC000431CF3D1F8BD00002DE9F04F0D469DB025
:103ED00014469846064618B183690BB900F00CFBEE
:103EE000894B9D421BD175686B6ED90705D4AB8990
:103EF0009A0502D4A86D00F09DFBAB891B0701D584
:103F00002B69EBB92946304600F06EF9C0B16B6EF3
:103F1000DC070ED54FF0FF301DB0BDE8F08F7B4BB6
:103F20009D4201D1B568DFE7794B9D4208BFF56836
:103F3000DAE7AB899805EDD4A86D00F07CFBE9E7E2
:103F40000023099320238DF82930CDF80C803023ED
:103F5000DFF8C0818DF82A304FF0010923469A46D8
:103F600013F8012B0AB1252AF9D1BAEB040B0BD0B7
:103F70005B46224629463046FFF793FF013000F0AA
:103F8000AA80099A5A4409929AF80030002B00F04E
:103F9000A28000234FF0FF32CDE905230AF1010A88
:103FA000049307938DF853301A935446052214F85E
:103FB000011B5848FDF784F8049AD8B9D10644BFCC
:103FC00020238DF85330130744BF2B238DF8533033
:103FD0009AF800302A2B15D0079A544600204FF04B
:103FE0000A0C214611F8013B303B092B4ED9B0B1E8
:103FF000079214E0A0EB080309FA03F313430493B8
:10400000A246D2E7039B191D1B680391002BBBBF7F
:104010005B4242F0020207930793B8BF04922378F1
:104020002E2B0CD163782A2B35D1039B1A1D1B68CC
:104030000392002BB8BF4FF0FF3302340593DFF833
:10404000E4A0217803225046FDF73AF840B140231E
:10405000A0EB0A0003FA00F0049B0343013404932D
:1040600014F8011B2C488DF828100622FDF728F8BB
:1040700000283FD0294B1BBB039B073323F00703CA
:1040800008330393099B3B44099367E70CFB023217
:104090000C460120A5E700230134059319464FF093
:1040A0000A0C204610F8012B303A092A03D9002BBC
:1040B000C5D00591C3E70CFB012104460123F0E7BD
:1040C00003AB00932A46164B04A93046FDF764FF64
:1040D0000746781CD6D16B6ED90705D4AB899A05F3
:1040E00002D4A86D00F0A7FAAB895B063FF512AFCA
:1040F000099811E703AB00932A46094B04A93046FF
:10410000FEF7EEF9E4E700BF5C4C00087C4C0008C9
:104110003C4C00082A4B0008344B0008991F00084B
:10412000A33E0008304B0008F8B50E46144605467D
:1041300018B183690BB900F0DFF9214B9C422BD1F8
:104140006C68A369A360A3891A072FD523696BB391
:1041500023692068C01A6369F6B28342374604DCDB
:104160002146284600F034F930BBA368013BA36028
:1041700023685A1C22601E7063690130834204D098
:10418000A389DB0706D50A2E04D12146284600F074
:104190001FF988B93846F8BD0A4B9C4201D1AC687A
:1041A000CFE7094B9C4208BFEC68CAE72146284686
:1041B00000F01AF80028CBD04FF0FF37EAE700BF35
:1041C0005C4C00087C4C00083C4C000849B1FF2ABC
:1041D00085BF8A2303600A704FF0FF3098BF01202B
:1041E0007047084670470000324B70B51D680646A0
:1041F0000C4625B1AB6913B9284600F07DF92E4B6A
:104200009C420FD16C68A389B4F90C2019072CD4F7
:10421000DD0611D40923336042F04003A3814FF03F
:10422000FF303EE0254B9C4201D1AC68EBE7244BCC
:104230009C4208BFEC68E6E7580712D5616B41B1B4
:1042400004F14403994202D03046FFF7D5FC002325
:104250006363A38923F02403A3810023636023699C
:104260002360A38943F00803A38123694BB9A38981
:1042700003F42073B3F5007F03D02146304600F0ED
:1042800001FAA089B4F90C2010F001030AD0002330
:10429000A36063695B42A361236943B910F08000A6
:1042A000BAD170BD810758BF6369A360F4E70020ED
:1042B000F7E700BF040000205C4C00087C4C0008BD
:1042C0003C4C00088A892DE9F041054610070C4650
:1042D00058D44B68002B05DC0B6C002B02DC002053
:1042E000BDE8F081E66A002EF9D0002312F4805276
:1042F0002F682B6032D0606DA3895A0705D563689B
:10430000C01A636B0BB1236CC01A00230246E66A25
:10431000216A2846B047431CA38906D129681D2974
:104320002CD82A4ACA40D60728D500226260D90470
:104330002269226004D5421C01D12B6803B9606553
:10434000616B2F600029CAD004F14403994202D066
:104350002846FFF751FC00206063C1E7216A012372
:104360002846B047411CC7D12B68002BC4D01D2B59
:1043700001D0162B01D12F60B1E7A38943F0400390
:10438000A381ADE70F69002FA9D093070E6808BF7E
:104390004B690F6018BF0023A6EB07088B60B8F1CC
:1043A000000F9CDD216AA66A43463A462846B0477C
:1043B000002806DCA38943F04003A3814FF0FF30BF
:1043C0008EE70744A8EB0008E9E700BF01004020A2
:1043D00038B50B6905460C4613B90025284638BD8B
:1043E00018B183690BB900F087F8144B9C421BD1BC
:1043F0006C68B4F90C30002BEFD0626ED00704D497
:10440000990502D4A06D00F015F928462146FFF762
:1044100059FF636EDA070546E0D4A3899B05DDD416
:10442000A06D00F008F9D9E7054B9C4201D1AC68BA
:10443000DFE7044B9C4208BFEC68DAE75C4C0008FD
:104440007C4C00083C4C0008002310B50446C0E931
:104450000033C0E90433836081814366C281836194
:10446000194608225C30FDF7EFFC054B6362054BF3
:10447000A362054BE362054B2462236310BD00BFBA
:1044800005470008274700085F47000883470008E2
:10449000014900F0AFB800BFD143000870B56822F1
:1044A0004D1E55430E4605F17401FFF711FC0446FD
:1044B00040B10021C0E900160C30A06005F168028F
:1044C000FDF7C2FC204670BD014800F0B3B800BF44
:1044D00005020020014800F0AEB800BF0502002030
:1044E000014800F0A7B800BF06020020014800F014
:1044F000A2B800BF0602002010B50446FFF7F0FF87
:10450000A3691BB1BDE81040FFF7F0BFC4E9123347
:104510002365134B134A1B68A262A34204BF012305
:10452000A361204600F020F86060204600F01CF8EF
:10453000A060204600F018F80022E06004216068C6
:10454000FFF782FFA06801220921FFF77DFFE068E5
:1045500002221221FFF778FF0123A361D2E700BFF7
:104560007848000891440008F8B50746FFF7ACFF0B
:104570001E4B1E68B36913B93046FFF7BDFF4836BE
:10458000D6E90134013B03D533680BB33668F7E74E
:10459000B4F90C50D5B9164BE36004F158006566C8
:1045A00000F047F8FFF796FFC4E90155C4E9045548
:1045B0002560A5610822294604F15C00FDF744FC52
:1045C000C4E90D55C4E912552046F8BD6834D9E751
:1045D00004213846FFF762FF044630600028D5D139
:1045E000FFF778FF0C233B60EEE700BF7848000838
:1045F0000100FFFF2DE9F8430646884600F1480414
:104600000027D4E90195B9F1010905D52468002CEA
:10461000F7D13846BDE8F883AB89012B07D9B5F946
:104620000E30013303D029463046C0470743683572
:10463000E9E770477047704770B50E46B1F90E1044
:10464000002996B014461D4608DAB6F90C3000224F
:104650002A601A0610D44FF480630EE06A4600F018
:10466000B7F80028F1DB019A02F47042A2F500537A
:104670005A425A412A60EEE740230020236016B0D8
:1046800070BD00008B8973B59D0706460C4607D5A3
:1046900004F14703236023610123636102B070BD0D
:1046A00001AB6A46FFF7C8FF009905463046FFF7A1
:1046B0000FFB48B9B4F90C309A05EFD423F003038B
:1046C00043F00203A381E3E70D4BB362A3892060AB
:1046D00043F08003A381009B6361019B20615BB178
:1046E000B4F90E10304600F085F828B1A38923F004
:1046F000030343F00103A381A0890543A581CDE70E
:104700009144000810B50C46B1F90E1000F094F871
:104710000028ABBF636DA3891B1823F48053ACBF83
:104720006365A38110BD2DE9F0411F468B89DB0530
:1047300005460C46164605D5B1F90E100223002297
:1047400000F068F8A389B4F90E1023F48053A38114
:1047500032463B462846BDE8F04100F017B810B598
:104760000C46B1F90E1000F055F8431CA38915BF93
:10477000606523F4805343F48053A38118BFA38161
:1047800010BDB1F90E1000F013B8000038B5074D98
:1047900004460846114600222A601A46FDF797FA99
:1047A000431C02D12B6803B1236038BD00020020F6
:1047B00038B5064D0023044608462B60FDF7D0FAB5
:1047C000431C02D12B6803B1236038BD00020020D6
:1047D00038B5074D00230446084611462B60FDF707
:1047E000CBFA431C02D12B6803B1236038BD00BF54
:1047F0000002002038B5064D0023044608462B6011
:10480000FDF7CAFA431C02D12B6803B1236038BDFF
:104810000002002038B5074D044608461146002224
:104820002A601A46FDF7C3FA431C02D12B6803B174
:10483000236038BD0002002038B5074D0446084605
:10484000114600222A601A46FDF724FA431C02D1C1
:104850002B6803B1236038BD00020020F8B500BF0B
:10486000F8BC08BC9E467047F8B500BFF8BC08BC51
:044870009E467047A9
:1048780008000020494E4600696E66004E414E0011
:104888006E616E00300030313233343536373839A6
:1048980041424344454600303132333435363738A7
:1048A8003961626364656600496E66696E69747928
:1048B800004E614E005245454E54206D616C6C6F40
:1048C8006320737563636565646564002F6D6E743A
:1048D8002F776F726B73706163652F776F726B736D
:1048E800706163652F4743432D31302D70697065C2
:1048F8006C696E652F6A656E6B696E732D474343ED
:104908002D31302D706970656C696E652D333338C3
:104918005F32303231313031385F3136333435310E
:10492800363230332F7372632F6E65776C69622F5E
:104938006E65776C69622F6C6962632F7374646C3F
:1049480069622F64746F612E630042616C6C6F63DF
:1049580020737563636565646564002F6D6E742FDD
:10496800776F726B73706163652F776F726B73709B
:104978006163652F4743432D31302D706970656C35
:10498800696E652F6A656E6B696E732D4743432D9B
:1049980031302D706970656C696E652D3333385F01
:1049A80032303231313031385F31363334353136A7
:1049B8003230332F7372632F6E65776C69622F6E96
:1049C80065776C69622F6C6962632F7374646C69B4
:1049D800622F6D707265632E630000000000000096
:1049E8000080E03779C34143176E05B5B5B89346E3
:1049F800F5F93FE9034F384D321D30F94877825AAF
:104A08003CBF737FDD4F1575000000000000F03FCC
:104A18000000000000002440000000000000594091
:104A28000000000000408F40000000000088C340E4
:104A380000000000006AF8400000000080842E4159
:104A480000000000D01263410000000084D79741A5
:104A58000000000065CDCD41000000205FA00242AB
:104A6800000000E876483742000000A2941A6D4220
:104A7800000040E59C30A2420000901EC4BCD64213
:104A880000003426F56B0C430080E03779C34143BE
:104A980000A0D8855734764300C84E676DC1AB4334
:104AA800003D9160E458E143408CB5781DAF154452
:104AB80050EFE2D6E41A4B4492D54D06CFF080442D
:104AC800F64AE1C7022DB544B49DD9794378EA4442
:104AD80005000000190000007D0000002C2066750C
:104AE8006E6374696F6E3A200061737365727469DE
:104AF8006F6E2022257322206661696C65643A20F6
:104B080066696C6520222573222C206C696E6520ED
:104B18002564257325730A004300504F53495800F4
:104B28002E00232D302B2000686C4C0065666745ED
:104B38004647000020202020202020202028282848
:104B4800282820202020202020202020202020204D
:104B58002020202088101010101010101010101095
:104B680010101010040404040404040404041010B5
:104B78001010101010414141414141010101010152
:104B880001010101010101010101010101010110FE
:104B98001010101010424242424242020202020227
:104BA80002020202020202020202020202020210CF
:104BB800101010200000000000000000000000009D
:104BC80000000000000000000000000000000000DD
:104BD80000000000000000000000000000000000CD
:104BE80000000000000000000000000000000000BD
:104BF80000000000000000000000000000000000AD
:104C0800000000000000000000000000000000009C
:104C1800000000000000000000000000000000008C
:104C2800000000000000000000000000000000007C
:104C3800000000000000000000000000000000006C
:104C4800000000000000000000000000000000005C
:104C5800000000000000000000000000000000004C
:104C6800000000000000000000000000000000003C
:104C7800000000000000000000000000000000002C
:104C8800000000000000000000000000000000001C
:044C98000000000018
:104C9C0008B10181B0B000840000000008B10181AE
:084CAC00B0B00084000000001C
:104CB4001CB5FF7F01000000ACB5FF7FB0A90280E6
:104CC40040B6FF7FB0B0A88090B6FF7F010000001F
:104CD4009CB6FF7FB0B0AA80D0B6FF7FAE71B28021
:104CE40094B7FF7F0100000090B7FF7FAB3F38808F
:104CF400F0B7FF7F01000000F8B7FF7FB0B0AA80D3
:104D040034B8FF7F01000000E0B8FF7FAA0DB28035
:104D14005CB9FF7FB0AF0880FCBBFF7F01000000DF
:104D240000BCFF7FAD3F02807CBEFF7F010000001E
:104D340058C0FF7F008404806CC0FF7F0100000026
:104D440068C0FF7FB0AD04800CC3FF7FB0A80380B0
:104D540030C3FF7F44FFFF7F34C3FF7F48FFFF7FE3
:104D640040C3FF7F01000000ACCEFF7F0884978022
:084D7400DCCEFF7F010000000E
:044D7C00B501000875
:044D80009101000895
:104D840000A24A0408000020000000005C4C000857
:104D94007C4C00083C4C00080000000000000000AF
:104DA40000000000000000000000000000000000FF
:104DB40000000000000000000000000000000000EF
:104DC40000000000000000000000000000000000DF
:104DD40000000000000000000000000000000000CF
:104DE400000000000000000043000000000000007C
:104DF40000000000000000000000000000000000AF
:104E0400000000000000000043000000000000005B
:104E1400000000000000000000000000000000008E
:104E2400000000000000000043000000000000003B
:104E3400000000000000000000000000000000006E
:104E4400000000000000000043000000000000001B
:104E5400000000000000000000000000000000004E
:104E640000000000000000004300000000000000FB
:104E7400000000000000000000000000000000002E
:104E840000000000000000004300000000000000DB
:104E9400000000000000000000000000000000000E
:104EA40000000000000000004300000000000000BB
:104EB40000000000000000000000000000000000EE
:104EC4000000000000000000CD410008393E000849
:104ED400000000003B4B0008284B00081F4B000853
:104EE4001F4B00081F4B00081F4B00081F4B0008F6
:104EF4001F4B00081F4B00081F4B00081F4B0008E6
:104F0400FFFFFFFFFFFFFFFFFFFFFFFFFFFF0000AB
:104F14000100415343494900000000000000000023
:104F2400000000000000000000000000000000007D
:104F34000000415343494900000000000000000004
:104F4400000000000000000000000000000000005D
:044F54000000000059
:0400000508001A894C
:00000001FF
