:020000040800F2
:1000000000A00020891A0008D91A0008D91A00088F
:10001000D91A0008D91A0008D91A000800000000EF
:10002000000000000000000000000000A13F0008E8
:10003000D91A00080000000031400008954000086F
:10004000D91A0008D91A0008D91A0008D91A0008C4
:10005000D91A0008D91A0008D91A0008D91A0008B4
:10006000D91A0008D91A0008D91A0008D91A0008A4
:10007000D91A0008D91A0008D1220008152300084F
:10008000D91A0008D91A0008D91A0008D91A000884
:10009000D91A0008D91A0008D91A0008D91A000874
:1000A000D91A0008D91A0008D91A0008D91A000864
:1000B000D91A0008D91A0008D91A0008D91A000854
:1000C000D91A0008D91A0008D91A0008D91A000844
:1000D000D91A000859230008D91A0008D91A0008AB
:1000E000D91A0008D91A0008D91A0008D91A000824
:1000F000D91A0008D91A0008D91A0008D91A000814
:10010000000000000000000000000000D91A0008F4
:10011000D91A0008D91A000811200008D91A0008B5
:10012000D91A0008D91A0008D91A0008D91A0008E3
:10013000D91A0008D91A00080000000000000000C9
:10014000D91A0008D91A0008D91A000800000000BE
:10015000000000000000000000000000000000009F
:100160000000000000000000D91A0008D91A000899
:10017000D91A000800000000000000000000000084
:0801800000000000D91A00087C
:1001900010B5054C237833B9044B13B10448AFF3C1
:1001A00000800123237010BDD80100200000000052
:1001B000806D000808B5034B1BB103490348AFF33A
:1001C000008008BD00000000DC010020806D0008F8
:1001D00003685A004CBF43F0004323F00043184427
:1001E000704700BF2DE9F84329B34F1E044615465A
:1001F0003E464FF0000808EB060101EBD1714910B3
:1002000004EBC1094846FFF7E3FF0346C800083086
:100210008F42204409D0AB4209D8FFF7D9FF0138FB
:10022000A8420AD201F10108E5E7AB4205D98845A9
:1002300001D04E1EDFE74FF000094846BDE8F883C5
:10024000012807D0022807D0044B00280CBF18460D
:10025000002070470248704702487047190900089B
:100260001D0900082109000830B5234B83B004465E
:100270008D1E3BB301A92846AFF30080E8B1019978
:100280002A46FFF7AFFF0146B8B1FFF7A1FF4B6861
:10029000A064012B2CD0002B01F1040024DBFFF71C
:1002A00097FF0023C4E913030368002B11DBFFF75A
:1002B0008FFF2061002003B030BD0023092023619F
:1002C00003B030BD0D4B0E49C91AC9101846019133
:1002D000D6E7C3F30360FFF7B3FF0028206114BF24
:1002E0000020092003B030BD0123C4E91303DBE77C
:1002F000002323610520DEE70000000030720008C3
:10030000187300080368DA0710B5044606D49B0783
:1003100000F1480009D500F05BFC2368590709D5B6
:100320001A070ED5DB0613D510BD00F049FC236873
:100330005907F5D404F1D00000F052FC23681A07E5
:10034000F0D404F5A87000F053FC2368DB06EBD46E
:1003500004F5E870BDE8104000F08EBC092070473D
:100360000346006800B11844704700BF704700BFE3
:1003700070B504460E46316C2046FFF775FF054602
:1003800088B9326C62612369324621460120984760
:100390000828F0D0072806D12846316CFFF7E6FF81
:1003A000301D00F001FC03F037FF00BF2DE9F047DE
:1003B0000D1DD0F80C80D0F81890074614460FCDCC
:1003C000ADF5727D0DF10C0CACE80F000FCDACE873
:1003D0000F000FCDACE80F0095E80F0002AE4FF014
:1003E000000E8CE80F00C6F800E020E0336C7B6163
:1003F0004FF4F07231467AA804F039F83B697AAAD2
:10040000394650469847889B73642146CDE9006978
:1004100005463B463A460120C0470446E0B94FF442
:10042000F0727AA9304604F022F8082D1AD1316C06
:100430003846FFF719FF09345FFA84FA05460028A9
:10044000D4D0B36B73643A46CDE900693B464AF0B9
:1004500010010120C04700B1092528460DF5727D25
:10046000BDE8F087072DF7D12046316CFFF77EFFFE
:1004700003A800F099FB00BF406C7047F0B5CB6B50
:100480000B6401F1040C0E460546BCE80F00F9B000
:1004900001AC0FC4BCE80F000FC4BCE80F000FC4D0
:1004A0009CE80F004FF0FF3784E80F00009706E04C
:1004B0002B696A46294698470828044608D11099AE
:1004C0002846FFF7D1FE0028F2D0092079B0F0BD10
:1004D0006846FFF717FF062CF7D131462846FFF78D
:1004E00047FF00BFC160D96B8261196400221946C1
:1004F0005CE700BF70B5C66843690B64AEB90369B9
:100500000A4604460D46014602209847072805D0B2
:1005100008280FD129462046FFF72AFF3046296CCC
:10052000FFF724FF281D00F03FFB0122FFF73EFFED
:1005300003F072FE03F070FEC2681AB1CA6B0A645F
:10054000002233E79AE700BF704700BF8368014687
:100550000BB1012018477047012912D009D873B98F
:100560000F2A0CD800EB820218465368009A1360D9
:1005700070470339012994BF0120022070470220EF
:1005800070470846704700BF00B585B00A46002393
:1005900003A900911946FFF7DFFF039805B05DF846
:1005A00004FB00BF012912D009D873B90F2A0CD857
:1005B00000EB8200009A12684260184670470339C7
:1005C000012994BF0120022070470220704708468D
:1005D000704700BF10B584B0002303AC03920094B1
:1005E0000A461946FFF7DEFF04B010BD70B5D36BA5
:1005F000136402F1040C05460C46BCE80F00ADF58F
:100600000E7D0DF15C0EAEE80F00BCE80F00AEE809
:100610000F00BCE80F00AEE80F009CE80F004FF0A1
:10062000FF368EE80F00169610E0FFF7D3FF214645
:1006300016A8A847034616AA6946082083B9049B52
:100640009847052806460CD0092809D026996846FF
:10065000FFF70AFE03466A460C2116A8002BE4D0D9
:10066000092616A8FFF74EFE30460DF50E7D70BD2B
:100670002DE9F04FCC6C89B01E4654F8043B06942B
:100680000D46174600F00308002E79D01A0C1B0403
:1006900005938DF81D200223D2B204EB82048DF85D
:1006A0001C302B6DB8F1020F08BFAC6B13F00103C7
:1006B0000CD005A9384600F079FB18B9082009B01C
:1006C000BDE8F08F092009B0BDE8F08FD4F800A094
:1006D000BAF1000FEDD0019300F008030293022E4F
:1006E0004AD0B4F800A0B4F802900434AB6C29F0FE
:1006F000010B0F2138469B44FFF746FF834539D84D
:100700002AF001039B44834594BF002001204FEA57
:10071000490303F002030AF0010A43EA0A03012B2A
:1007200049D0022B32D0002BCCD1B8F1000F02D02F
:10073000002840F0CD800434D4F800A0BAF1000FB6
:10074000CDD105A9384600F031FB0028BAD1019B74
:10075000002BB3D00F213846FFF716FF0E210246BB
:100760003846FFF737FF38466A4A0F21FFF732FF56
:100770000720A8E70020CAE7D4F804900834B5E7BA
:100780001B0205930323ADF81C308AE7236823F08E
:10079000004BB8F1000F45D128B1029A002A5CD075
:1007A000BBF1000F74D0002B00DA04340BF1010B05
:1007B00004EB8B04C0E7B8F1000F19D1B0B1636846
:1007C0002268991C4FEAD2723FF47CAF05F15801C0
:1007D0000133049100F09080201DFFF7C1FD04ABB0
:1007E00001462846AFF3008000285BD10834A3E718
:1007F0000D213846D5F82090FFF7C6FE8145F5D18A
:10080000AB6A9C42F2D12046FFF7E2FC0F21024680
:100810003846FFF7DFFE38462A460021FFF7DAFEAA
:10082000072050E70D213846D5F82090FFF7ACFEA1
:10083000814501D02368B6E7AB6A9C42FAD1042314
:100840000022C5E90B23E318C5F828B06B632368C1
:10085000002B59DB01230193A8E705F15803CDF8DC
:100860000C8004F1040AB04691461E460EE0504644
:100870000496FFF775FD0022014604AB284609F1F6
:1008800001090AF1040AAFF30080E0B9D945EED1BD
:100890000D213846FFF778FE049BAC62C5E90803DA
:1008A000062010E781460D213846FFF76DFEB9F1AD
:1008B000020F286225D12B46049A43F82C2F6B6235
:1008C000AC620620FFE646462368DDF80C806AE746
:1008D0002046FFF77DFC04340246AC6328461446EC
:1008E000AFF3008000283FF4EDAE384622460F21DA
:1008F000FFF770FE0720E6E60D213846FFF744FEBD
:100900002862049B6B62DBE70BF1010004EB8000C3
:100910007AE700BF000000000023A9E60123A7E654
:100920000223A5E62DE9F0430646C3B015461C4652
:10093000042900F2BF80DFE801F09E57BD2D0300BF
:10094000002C40F0B780102A00F2B4800368D8066B
:1009500000F1F98020AF384600F098F9B46B3946C1
:1009600000234FF0010C0CFA03F22A42204603F157
:10097000010303D050F8042B0A600446042B01F154
:100980000401F0D13846B46300F076F9002043B09A
:10099000BDE8F083032C40F08D8094B204EB124349
:1009A000102B4FEA124500F2858003681F0700F103
:1009B000D28020AF384600F03DF9B26B07EBC5019D
:1009C00054B10B46D01A01EBC401E4001D5843F8A2
:1009D000045B8B42FAD122443846B26300F008F936
:1009E000002043B0BDE8F083012C4FEA124895B2D5
:1009F0005CD0052C5ED108EB0509B9F1200F59D860
:100A0000B8F10F0F79D9A946002D40F08A80B36B59
:100A10006DB320AF4FF0000907EBC807043F03EBAD
:100A2000C50553F8041B47F8041FAB42F9D1B9F1CF
:100A3000000F0FD06F464146102938BF102107EB39
:100A4000C101843903EBC90553F8040B41F8040FC5
:100A5000AB42F9D1012C00F08680B8F10F0FB563DD
:100A600047D9B9F1000F02D0684600F0B9F800206C
:100A700043B0BDE8F083ECB9806B23461FFA82FCDB
:100A80000124371D04FA03F212EA0C0F014604D0C8
:100A900051F8042B47F8232008460133102BF1D1DD
:100AA00015F40055E3D1B063284604E008EB0503D4
:100AB000102B03D9022043B0BDE8F083B8F10F0F2B
:100AC000F8D83368DA0706D5304623F0030340F838
:100AD000483B00F079F820AF384600F075F8B36B6A
:100AE000002D97D11D460435B563384600F068F8EF
:100AF000BDE720A800F06CF8B3E7B9F1100F40D9BA
:100B0000A9F110093368D90708D523F0010330464D
:100B100043F0020340F8483B00F05EF8B9F1000FE3
:100B200032D033685A0720D4B8F10F0F25D96F4659
:100B30003846C8F1100500F057F8002DB36B7FF769
:100B40007AAF20AF68E723F01003336006F5E87052
:100B500000F09CF8FEE623F00803036000F5A8709F
:100B600000F068F825E720AFBDE7304623F0040326
:100B700040F8D03B00F038F8D6E720A800F02CF879
:100B8000D5E74FF00009BDE7B8F10F0F3FF63FAFD3
:100B900020AF384600F020F8B36B002D7FF43AAF59
:100BA000384600F015F862E700F1340191E83800AA
:100BB0009C46A6464CF8045D90E8FF0FE54600BD54
:100BC00090EC210B704700BF80EC210B704700BFF9
:100BD00090EC200B704700BF80EC200B704700BFEB
:100BE000D0EC200B704700BFC0EC200B704700BF5B
:100BF000F0EC0201F0EC0211F0EC0221F0EC023119
:100C0000F0EC0241F0EC0251F0EC0261F0EC027108
:100C1000F0EC0281F0EC0291F0EC02A1F0EC02B1F8
:100C2000F0EC02C1F0EC02D1F0EC02E1F0EC02F1E8
:100C3000704700BFE0EC0201E0EC0211E0EC0221A1
:100C4000E0EC0231E0EC0241E0EC0251E0EC026148
:100C5000E0EC0271E0EC0281E0EC0291E0EC02A138
:100C6000E0EC02B1E0EC02C1E0EC02D1E0EC02E128
:100C7000E0EC02F1704700BFB0FC0181B0FC0191D3
:100C8000B0FC01A1B0FC01B1704700BFA0FC018124
:100C9000A0FC0191A0FC01A1A0FC01B1704700BF24
:100CA000EC4600B52DE900502DE9FF1F4FF0000381
:100CB0002DE90C0001A9FFF7E1FBDDF840E012B0DF
:100CC000704700BFEC4600B52DE900502DE9FF1F2D
:100CD0004FF000032DE90C0001A9FFF70BFCDDF834
:100CE00040E012B0704700BFEC4600B52DE900505F
:100CF0002DE9FF1F4FF000032DE90C0001A9FFF7BC
:100D00001BFCDDF840E012B0704700BFEC4600B5B8
:100D10002DE900502DE9FF1F4FF000032DE90C00D5
:100D200001ABFFF7DFFBDDF840E012B0704700BF1A
:100D3000EC4600B52DE900502DE9FF1F4FF00003F0
:100D40002DE90C0001AAFFF751FCDDF840E012B0DC
:100D5000704700BF027A03467AB9427AA2B141686D
:100D6000013A10B44272086803220C1D1A72020282
:100D70005C60000E10BC1A6070470068013A1A727D
:100D800002021A60000E7047B020704700B585B0AF
:100D9000002303AA009219460C22FFF7DDFB0398FB
:100DA00005B05DF804FB00BFF0E700BF2DE9F0439C
:100DB000054685B00E464FF000083046FFF7CAFFE3
:100DC000B028044600F0BA80070620D500F0F003F2
:100DD000802B4DD0902B36D0A02B60D0B02B74D070
:100DE000C02B00F08B8000F0F803D02B0BD100F06B
:100DF00007020132052342F4002201212846FFF7B1
:100E000091FD0028D9D0092005B0BDE8F08383000A
:100E1000DBB21F1D0DF10C0900231946CDF800901F
:100E20000D222846FFF798FB039BCDF80090600643
:100E30004CBFDF1BFF1800230D22194628460397DD
:100E4000FFF7B0FBB9E700F00D030D2BDBD003AFCC
:100E5000002300F00F02194600972846FFF77CFB9D
:100E6000002300970D2219462846FFF79BFBA4E7B5
:100E70003046FFF76FFF24022043B0F5004FC2D089
:100E800004010023A2B219462846FFF74BFD0028B3
:100E9000B9D114F4004F18BF4FF001088DE7C243D9
:100EA00002F007034FF47F621A41010702F47F62E8
:100EB0004FF0000348BF42F4804219462846FFF72E
:100EC00031FD00283FF479AF9DE7B1283BD0B2282F
:100ED00000F09380B32841D000F0FC03B42B92D0F3
:100EE00000F007020132012342F40022194628468D
:100EF000FFF718FD00283FF460AF84E7C6284AD00A
:100F0000C72854D000F0F803C02B63D0C82868D09D
:100F1000C9287FF478AF3046FFF71CFF020300F0CA
:100F20000F0002F4702201300243012105232846FC
:100F3000FFF7F8FC00283FF440AF64E7B8F1000F7A
:100F400018D0002060E73046FFF704FF0246002873
:100F50003FF459AF10F0F003C8D054E73046FFF724
:100F6000F9FE020300F00F03013302F470221A436A
:100F70000123BBE703AC43460E22414600942846BA
:100F8000FFF7EAFA009443460F2241462846FFF74E
:100F900009FB404638E73046FFF7DCFE020300F06D
:100FA0000F03013302F470221A4303239EE73046F5
:100FB000FFF7D0FE024600283FF425AF10F0F00303
:100FC0007FF421AF04212846FFF7ACFC00283FF452
:100FD000F4AE18E700F00F020132032342F420229E
:100FE00084E73046FFF7B6FE00F0F00200F00F0392
:100FF0001032013343EA023297E700230DF10C0966
:101000000D221946CDF800902846FFF7A5FA304684
:10101000FFF7A0FE02064FF002040CD5039B00F080
:101020007F00A040184403903046FFF793FE03066C
:1010300004F10704F2D4039BCDF8009000F07F0286
:10104000A24003F501731A440023039219460D22AE
:101050002846FFF7A7FAB0E610B5C26C536884B013
:101060004FF0030C08321C0208461B0E01A9019424
:1010700002928DF80CC08DF80D30FFF797FE04B08A
:1010800010BD00BF08B5FFF78FFE806C08BD00BF24
:1010900008B5FFF789FEC06CC379023300EB83000B
:1010A00008BD00BF034613F8012B002AFBD1181A14
:1010B0000138704700000000000000000000000040
:1010C00001F0FF01102A2BDB10F0070F08D010F8F9
:1010D000013B013A8B422DD010F0070F42B3F6D1FD
:1010E000F0B441EA012141EA014122F007047FF016
:1010F00000070023F0E80256083C85EA010586EA6D
:10110000010685FA47F5A3FA87F586FA47F6A5FAA8
:1011100087F68EB9EED1F0BC01F0FF0102F00702B4
:1011200032B110F8013B013A83EA010313B1F8D15F
:101130000020704701387047002D06BF3546033840
:10114000073815F0010F07D1013015F4807F02BF79
:10115000013015F4C03F0130F0BC0138704700BFCA
:1011600081F0004102E000BF83F0004330B54FEA58
:1011700041044FEA430594EA050F08BF90EA020FC5
:101180001FBF54EA000C55EA020C7FEA645C7FEA58
:10119000655C00F0E2804FEA5454D4EB5555B8BF7B
:1011A0006D420CDD2C4480EA020281EA030382EAEC
:1011B000000083EA010180EA020281EA0303362D7E
:1011C00088BF30BD11F0004F4FEA01314FF4801C51
:1011D0004CEA113102D0404261EB410113F0004F63
:1011E0004FEA03334CEA133302D0524263EB43031A
:1011F00094EA050F00F0A780A4F10104D5F1200EB8
:101200000DDB02FA0EFC22FA05F2801841F1000112
:1012100003FA0EF2801843FA05F359410EE0A5F1E6
:1012200020050EF1200E012A03FA0EFC28BF4CF017
:10123000020C43FA05F3C01851EBE37101F00045CD
:1012400007D54FF0000EDCF1000C7EEB00006EEBDA
:101250000101B1F5801F1BD3B1F5001F0CD3490864
:101260005FEA30004FEA3C0C04F101044FEA4452BB
:1012700012F5800F80F09A80BCF1004F08BF5FEA42
:10128000500C50F1000041EB045141EA050130BD22
:101290005FEA4C0C404141EB0101013C28BFB1F534
:1012A000801FE9D291F0000F04BF01460020B1FA7F
:1012B00081F308BF2033A3F10B03B3F120020CDA52
:1012C0000C3208DD02F1140CC2F10C0201FA0CF030
:1012D00021FA02F10CE002F11402D8BFC2F1200C95
:1012E00001FA02F120FA0CFCDCBF41EA0C0190404B
:1012F000E41AA2BF01EB0451294330BD6FEA040494
:101300001F3C1CDA0C340EDC04F11404C4F120027E
:1013100020FA04F001FA02F340EA030021FA04F390
:1013200045EA030130BDC4F10C04C4F1200220FAE7
:1013300002F001FA04F340EA0300294630BD21FA25
:1013400004F0294630BD94F0000F83F4801306BFEB
:1013500081F480110134013D4EE77FEA645C18BFDF
:101360007FEA655C29D094EA050F08BF90EA020F76
:1013700005D054EA000C04BF1946104630BD91EA6E
:10138000030F1EBF0021002030BD5FEA545C05D171
:101390004000494128BF41F0004130BD14F58004B0
:1013A0003CBF01F5801130BD01F0004545F0FE4124
:1013B00041F470014FF0000030BD7FEA645C1ABF59
:1013C000194610467FEA655C1CBF0B46024650EA90
:1013D000013406BF52EA033591EA030F41F40021BC
:1013E00030BD00BF90F0000F04BF0021704730B542
:1013F0004FF4806404F132044FF000054FF0000117
:1014000050E700BF90F0000F04BF0021704730B5D7
:101410004FF4806404F1320410F0004548BF4042AC
:101420004FF000013EE700BF42004FEAE2014FEA01
:1014300031014FEA02701FBF12F07F4393F07F4FDC
:1014400081F06051704732F07F4208BF704793F0DF
:101450007F4F04BF41F40021704730B54FF46074F2
:1014600001F0004521F000411CE700BF50EA0102F5
:1014700008BF704730B54FF000050AE050EA01029E
:1014800008BF704730B511F0004502D5404261EB0E
:1014900041014FF4806404F132045FEA915C3FF44F
:1014A000D8AE4FF003025FEADC0C18BF03325FEAEC
:1014B000DC0C18BF033202EBDC02C2F1200300FA9D
:1014C00003FC20FA02F001FA03FE40EA0E0021FAC2
:1014D00002F11444BDE600BF70B54FF0FF0C4CF4B0
:1014E000E06C1CEA11541DBF1CEA135594EA0C0F62
:1014F00095EA0C0F00F0DEF82C4481EA030621EA9D
:101500004C5123EA4C5350EA013518BF52EA0335D7
:1015100041F4801143F4801338D0A0FB02CE4FF089
:101520000005E1FB02E506F00042E0FB03E54FF0B9
:101530000006E1FB03569CF0000F18BF4EF0010EB1
:10154000A4F1FF04B6F5007F64F5407404D25FEAAD
:101550004E0E6D4146EB060642EAC62141EA555160
:101560004FEAC52040EA5E504FEACE2EB4F1FD0CA2
:1015700088BFBCF5E06F1ED8BEF1004F08BF5FEA20
:10158000500E50F1000041EB045170BD06F00046D2
:1015900046EA010140EA020081EA0301B4EB5C047F
:1015A000C2BFD4EB0C0541EA045170BD41F4801177
:1015B0004FF0000E013C00F3AB8014F1360FDEBF9C
:1015C000002001F0004170BDC4F10004203C35DA78
:1015D0000C341BDC04F11404C4F1200500FA05F3FB
:1015E00020FA04F001FA05F240EA020001F000429C
:1015F00021F0004110EBD37021FA04F642EB060112
:101600005EEA430E08BF20EAD37070BDC4F10C043B
:10161000C4F1200500FA04F320FA05F001FA04F2FF
:1016200040EA020001F0004110EBD37041F10001EB
:101630005EEA430E08BF20EAD37070BDC4F12005F6
:1016400000FA05F24EEA020E20FA04F301FA05F25E
:1016500043EA020321FA04F001F0004121FA04F206
:1016600020EA020000EBD3705EEA430E08BF20EAD6
:10167000D37070BD94F0000F0FD101F00046400010
:1016800041EB010111F4801F08BF013CF7D041EA92
:10169000060195F0000F18BF704703F00046520096
:1016A00043EB030313F4801F08BF013DF7D043EA67
:1016B0000603704794EA0C0F0CEA135518BF95EA1D
:1016C0000C0F0CD050EA410618BF52EA4306D1D1A4
:1016D00081EA030101F000414FF0000070BD50EAC3
:1016E000410606BF1046194652EA430619D094EA4D
:1016F0000C0F02D150EA013613D195EA0C0F05D137
:1017000052EA03361CBF104619460AD181EA03018A
:1017100001F0004141F0FE4141F470014FF0000042
:1017200070BD41F0FE4141F4780170BD70B54FF0DD
:10173000FF0C4CF4E06C1CEA11541DBF1CEA13555D
:1017400094EA0C0F95EA0C0F00F0A7F8A4EB05043F
:1017500081EA030E52EA03354FEA013100F0888036
:101760004FEA03334FF0805545EA131343EA1263FF
:101770004FEA022245EA111545EA10654FEA0026B4
:101780000EF000419D4208BF964244F1FD0404F56D
:10179000407402D25B084FEA3202B61A65EB0305C9
:1017A0005B084FEA32024FF480104FF4002CB6EB86
:1017B000020E75EB030E22BFB61A754640EA0C0006
:1017C0005B084FEA3202B6EB020E75EB030E22BF46
:1017D000B61A754640EA5C005B084FEA3202B6EB87
:1017E000020E75EB030E22BFB61A754640EA9C0046
:1017F0005B084FEA3202B6EB020E75EB030E22BF16
:10180000B61A754640EADC0055EA060E18D04FEAD3
:10181000051545EA16754FEA06164FEAC30343EA73
:1018200052734FEAC2025FEA1C1CC0D111F4801F40
:101830000BD141EA00014FF000004FF0004CB6E739
:1018400011F4801F04BF01430020B4F1FD0C88BFD8
:10185000BCF5E06F3FF6AFAEB5EB030C04BFB6EBE3
:10186000020C5FEA500C50F1000041EB045170BDD6
:101870000EF0004E4EEA113114EB5C04C2BFD4EB03
:101880000C0541EA045170BD41F480114FF0000E87
:10189000013C90E645EA060E8DE60CEA135594EA03
:1018A0000C0F08BF95EA0C0F3FF43BAF94EA0C0F06
:1018B0000AD150EA01347FF434AF95EA0C0F7FF47B
:1018C00025AF104619462CE795EA0C0F06D152EACF
:1018D00003353FF4FDAE1046194622E750EA4106B3
:1018E00018BF52EA43067FF4C5AE50EA41047FF4C4
:1018F0000DAF52EA43057FF4EBAE12E74FF0FF3C29
:1019000006E000BF4FF0010C02E000BF4FF0010CF9
:101910004DF804CD4FEA410C7FEA6C5C4FEA430C72
:1019200018BF7FEA6C5C1BD001B050EA410C0CBFC1
:1019300052EA430C91EA030F02BF90EA020F002023
:10194000704710F1000F91EA030F58BF994208BF8A
:1019500090422CBFD8176FEAE37040F00100704747
:101960004FEA410C7FEA6C5C02D150EA013C07D19E
:101970004FEA430C7FEA6C5CD6D152EA033CD3D0E9
:101980005DF8040B704700BF8446104662468C46E3
:101990001946634600E000BF01B5FFF7B7FF002816
:1019A00048BF10F1000F01BD4DF808EDFFF7F4FF3F
:1019B0000CBF012000205DF808FB00BF4DF808EDCA
:1019C000FFF7EAFF34BF012000205DF808FB00BFED
:1019D0004DF808EDFFF7E0FF94BF012000205DF80F
:1019E00008FB00BF4DF808EDFFF7CEFF94BF0120C4
:1019F00000205DF808FB00BF4DF808EDFFF7C4FFBD
:101A000034BF012000205DF808FB00BF4FEA410C05
:101A10007FEA6C5C02D150EA013C0AD14FEA430CE8
:101A20007FEA6C5C02D152EA033C02D14FF0000025
:101A300070474FF0010070474FEA410212F5001263
:101A400015D211D56FF47873B3EB625212D94FEA05
:101A5000C12343F0004343EA505311F0004F23FAEF
:101A600002F018BF404270474FF00000704750EA44
:101A7000013005D111F0004008BF6FF00040704701
:101A80004FF00000704700BFDFF834D000F046FA96
:101A90000C480D490D4A002302E0D458C4500433C9
:101AA000C4188C42F9D30A4A0A4C002301E013609F
:101AB0000432A242FBD302F0B3FC00F059F9FEE776
:101AC00000A0002000000020D801002020730008A2
:101AD000D80100205C4F0020FEE70000EFF30583F3
:101AE0009BB9EFF3108383B90B4B1868022803D01E
:101AF00070B901221A607047EFF31183002B0CBFFD
:101B00004FF0FF306FF0050070476FF00500704731
:101B10004FF0FF30704700BFB0040020EFF30583A3
:101B2000C3B910B5EFF31084BCB90F4B1A68022A81
:101B300007D0012A14D102221A6000F0C9FF204602
:101B400010BDEFF31183002B0CBF4FF0FF306FF08F
:101B5000050010BD6FF0050070476FF0050010BD67
:101B60004FF0FF3010BD00BFB0040020F0B587B0CB
:101B700000240594EFF3058414B9EFF3108313B137
:101B8000002007B0F0BD2A4B1B68022B28D000288C
:101B9000F6D000238DF81330002A2DD01468002CC5
:101BA00039D093691BB35D1E372DE9D85568ED0711
:101BB000E6D45569EDB94FF0800C966876B3D768D6
:101BC000BB2FDDD91269002ADAD0002DD8D0CDE99B
:101BD0000126009362460B46214600F0B7FED0E78F
:101BE000EFF31183002BCBD10028D2D1C8E7182303
:101BF000DCE74FEA950CE0E7802218230DF113048F
:101C000000930B46214605AC019400F0D9FE012853
:101C1000B6D10598B5E70DF11304C2E7D568002DDC
:101C2000AED11269002AABD11FFA8CF2E8E700BFEF
:101C3000B004002008B5EFF3058363B9EFF3108318
:101C40004BB9084B1B68022B01D038B908BDEFF324
:101C50001183002BF9D06FF0050008BD00F0E2FE03
:101C6000002008BDB0040020044B036010B48023A2
:101C7000034C0C605DF8044B13607047F4030020C4
:101C8000F4010020054B036010B44FF48073044C42
:101C90000C605DF8044B1360704700BFB40800206F
:101CA000B4040020FEE700BFFEE700BF80B400AF31
:101CB000174B5B69164A43F400135361154B1B68BD
:101CC000144A9BB21360134B1B68124A43F0AA4399
:101CD00043F4AA0313600F4B5B680E4A23F47F435F
:101CE00053600C4B9B680B4A9BB29360094B9B68FB
:101CF000084A43F0AA4343F4AA039360054BDB6808
:101D0000044A9BB2D36000BFBD465DF8047B7047B8
:101D1000001002400010004880B500AFFFF7C6FF7A
:101D200000BF80BD80B586B000AF7860FFF7F4FFDC
:101D30004FF4E13000F038FB094A07F10C0307CA01
:101D400083E8070007F10C030C21184600F08AFA1B
:101D500000F026F84FF47A70FFF76CFFF2E700BF4F
:101D6000A06D000880B500AF00F02AF800BF80BD6C
:101D700080B500AF00F096F9FFF7B0FE054A0021EC
:101D80000548FFF7F3FE0346044A1360FFF7C6FE5B
:101D9000FEE700BFAC6D0008251D0008700900209B
:101DA00080B400AF054B5B69044A83F480635361E0
:101DB00000BFBD465DF8047B704700BF00100048BF
:101DC00080B400AF054B5B69044A83F40043536160
:101DD00000BFBD465DF8047B704700BF001000489F
:101DE0000120704708B502F01FFA162303604FF078
:101DF000FF3008BD08B502F017FA16230360FEE7AE
:101E000070B5161E07DD0C468D19AFF3008004F87F
:101E1000010BA542F9D1304670BD00BF70B5161E4A
:101E200007DD0C468D1914F8010BAFF30080AC42AE
:101E3000F9D1304670BD00BF0B4A08B503461068A3
:101E400028B1034469468B4207D8136008BD074890
:101E50001060034469468B42F7D902F0E5F90C2380
:101E600003604FF0FF3008BD74090020604F002070
:101E70004FF0FF30704700BF4FF400534B6000201D
:101E8000704700BF012070470020704780B483B0C6
:101E900000AF0346FB7197F90730002B0BDBFB7992
:101EA00003F01F02074997F907305B09012000FA88
:101EB00002F241F8232000BF0C37BD465DF8047BD9
:101EC000704700BF00E100E080B483B000AF03467C
:101ED0003960FB7197F90730002B0ADB3B68DAB2F7
:101EE0000C4997F907301201D2B20B4483F8002352
:101EF0000AE03B68DAB20849FB7903F00F03043BC0
:101F00001201D2B20B441A7600BF0C37BD465DF801
:101F1000047B704700E100E000ED00E080B400AF1A
:101F2000064BD3F88830054A43F47003C2F8883072
:101F300000BFBD465DF8047B704700BF00ED00E0C8
:101F400080B400AF304B1B682F4A43F480331360DA
:101F50002D4B1B6803F40033002B0CBF012300231F
:101F6000DBB2002B00D0F3E7274B5B68264A23F453
:101F700074135360244B5B68234A43F4E8135360A3
:101F8000214B1B68204A43F0807313601E4B1B6873
:101F900003F00073002B0CBF01230023DBB2002BE6
:101FA00000D0F3E7194B1B68184A43F00403136091
:101FB000154B5B68144A23F003035360124B5B68B4
:101FC000114A43F0020353600F4B5B6803F00C03AC
:101FD000082B14BF01230023DBB2002B00D0F3E752
:101FE000094B5B68084A23F47F5323F030035360A6
:101FF000054B5B68044A43F48063536000BFBD46F1
:102000005DF8047B704700BF0010024000200240D2
:1020100080B400AF0D4B1B6903F00103002B14BF0C
:1020200001230023DBB2002B0AD0084B1B69074AAF
:1020300023F001031361064B1B680133044A13604C
:1020400000BFBD465DF8047B704700BF0010004034
:102050007809002080B500AF104BDB690F4A43F0D0
:102060001003D3610E4B41F61F429A620C4B0922BA
:10207000DA620B4B1B680A4A43F001031360084BFA
:10208000DB68074A43F00103D3600F213620FFF7D6
:102090001BFF3620FFF7FAFE00BF80BD0010024094
:1020A0000010004080B500AFFFF74AFFFFF7D2FFF6
:1020B00000BF80BD80B483B000AF0346FB7197F9C9
:1020C0000730002B0BDBFB7903F01F02074997F960
:1020D00007305B09012000FA02F241F8232000BF1B
:1020E0000C37BD465DF8047B704700BF00E100E09F
:1020F00080B483B000AF03463960FB7197F90730B5
:10210000002B0ADB3B68DAB20C4997F90730120161
:10211000D2B20B4483F800230AE03B68DAB20849E4
:10212000FB7903F00F03043B1201D2B20B441A7681
:1021300000BF0C37BD465DF8047B704700E100E04E
:1021400000ED00E080B400AF0B4B5B690A4A43F43A
:1021500000235361084B9B69074A43F48043936112
:10216000054B5B69044A43F00103536100BFBD4660
:102170005DF8047B704700BF0010024080B400AFE0
:10218000174B1B68164A23F470631360144B1B68CB
:10219000134A43F420631360114B1B6A104A43F443
:1021A000E02313620E4B1B6A0D4A43F4E0031362F3
:1021B0000B4B5B680A4A23F030035360084B9B6863
:1021C000074A43F470639360054BDB68044A23F4C9
:1021D0007063D36000BFBD465DF8047B704700BFED
:1021E0000008004880B483B000AF78601B4B1A68C9
:1021F0001B497B68B2FBF3F3CB60194B1B68184A91
:1022000023F480531360164B1B68154A23F4806334
:102210001360134B5B68124A23F440535360104B16
:102220009B680F4A43F0800393600D4B9B680C4AF8
:1022300043F0400393600A4B1B68094A43F01003C4
:102240001360074B1B68064A43F00103136000BF8D
:102250000C37BD465DF8047B704700BF00000020CE
:102260000038014080B582B000AF78603960154B0E
:102270001B68144A43F008031360134B1B68124A8F
:1022800023F001031360104B104A9A600E4A7B68DA
:10229000D3600D4A3B6853600B4B42F292021A60C6
:1022A00005210E20FFF724FF0E20FFF703FF064B4A
:1022B0001B68054A43F00103136000BF0837BD46A1
:1022C00080BD00BF00380140440002402838014072
:1022D00080B500AF0D4B1B6803F40053002B14BFF7
:1022E00001230023DBB2002B0DD0084B5B68074AAB
:1022F00043F400535360064B1B68054A23F0080360
:102300001360FFF72FFD00BF80BD00BF000002403B
:102310000038014080B500AF0D4B1B6803F400335B
:10232000002B14BF01230023DBB2002B0DD0084B80
:102330005B68074A43F400335360064B1B68054A49
:1023400023F00403136000F021F800BF80BD00BF3C
:10235000000002400038014080B500AF0A4BDB6945
:1023600003F01003002B14BF01230023DBB2002B6A
:1023700007D0054B1B6A044A23F01003136200F0D8
:102380000CF800BF80BD00BF0038014080B400AF32
:1023900000BFBD465DF8047B704780B400AF00BF4E
:1023A000BD465DF8047B704780B582B000AF7860B1
:1023B000FFF7C8FEFFF7E2FE7868FFF713FF00BFE4
:1023C0000837BD4680BD00002DE9F843054601F001
:1023D000F9FD344A344E1368013313603368002B1F
:1023E00032D0324C23683BB3E86A314F314A32492C
:1023F0001368013313606B640B68834238BF086055
:1024000000EB800007EB8000291D01F02FFA01F09E
:10241000FBFD236873B13268EB6AD26A9A4209D233
:102420004FF0E0234FF08052C3F8042DBFF34F8FDD
:10243000BFF36F8FBDE8F8833368E86ADB6A1C4F2F
:10244000834298BF3560D1E735601368012B03D014
:10245000E86A174F154CC9E7154F3C4607F58C68DD
:102460002046143401F0F2F9A045F9D1DFF860906C
:10247000DFF860800D4C484601F0E8F9404601F075
:10248000E5F90E4801F0E2F90D4801F0DFF90D48D9
:1024900001F0DCF90C4BE86AC3F800900B4BC3F871
:1024A0000080A3E7E80D00207C090020440E0020F6
:1024B00088090020F40D0020F80D0020300E0020C7
:1024C0005C0E0020480E00208009002084090020B6
:1024D000FC0D0020100E00202DE9F0470A9CDDF8CD
:1024E00024804FEA82094A4606460D46206BA52104
:1024F0001F4601F0CAFF236BA9F10409994429F092
:102500000709002D00F08A802B7884F834302B786E
:10251000002B4DD06B7884F835306B78002B47D08A
:10252000AB7884F83630AB78002B41D0EB7884F868
:102530003730EB78002B3BD02B7984F838302B796F
:10254000002B35D06B7984F839306B79002B2FD084
:10255000AB7984F83A30AB7953B3EB7984F83B30FC
:10256000EB792BB32B7A84F83C302B7A03B36B7A5C
:1025700084F83D306B7ADBB1AB7A84F83E30AB7ACD
:10258000B3B1EB7A84F83F30EB7A8BB12B7B84F8D4
:1025900040302B7B63B16B7B84F841306B7B3BB16C
:1025A000AB7B84F84230AB7B13B1EB7B84F84330D8
:1025B000002384F84330089D372D28BF37254FF07E
:1025C000000AE562E564201DC4F850A001F04AF954
:1025D000C5F1380504F1180001F044F9C4F8B4A0BD
:1025E00051466022A5612461646284F8B8A004F1B8
:1025F000540001F04AFF0B4BA3650B4BE3650B4BFB
:1026000023663A463146484601F0B4FC2060B8F1F2
:10261000000F01D0C8F80040BDE8F08784F83450BE
:10262000C9E700BF086E0008286E0008E86D0008C2
:1026300080B5234D234F244EDFF890804FF0E02AE1
:102640004FF080592B685BB301F0BCFCFB68DC6881
:10265000201D01F033F93368013B33602B68013BE7
:102660002B6001F0D1FC04F1540002F023FC94F83B
:10267000B93063B1012B1ED0022BE3D04FF05003D1
:1026800083F31188BFF36F8FBFF34F8FFEE7206B8B
:1026900001F0D0FB204601F0CDFB2B68002BD3D1FD
:1026A000D8F80030012BCDD9CAF8049DBFF34F8F65
:1026B000BFF36F8FC6E7204601F0BCFBC2E700BF47
:1026C000EC0D00205C0E0020E80D002088090020A1
:1026D0002DE9F04F474B1E68013683B01E60002E77
:1026E00040D0DFF824B1DBF800309E4247D3424FA0
:1026F000DFF818913B68DFF818A11D68002D73D032
:10270000DFF81081002522E0019101F0D7F8A36ADB
:10271000019904F1180013B101F0D0F80199E36AAE
:10272000D8F8002003EB8300934209EB800088BFB8
:10273000C8F8003001F09AF8DAF800203B68E16A46
:10274000D26A1B68914228BF0125002B4CD03B6800
:10275000DB68DC686368211D9E420846D4D2CBF852
:10276000003011E0244B1A6812680AB34FF050038E
:1027700083F31188BFF36F8FBFF34F8FFEE7DFF84E
:102780008C90DFF88CA00025DAF800301B49DB6A5A
:1027900003EB83039B0059F803200B68022A28BF30
:1027A0000125002B0CBF2846012003B0BDE8F08FA7
:1027B000134A186811681960124910600A680132DA
:1027C0000A601A68126832B9DFF83CB04FF0FF3384
:1027D000CBF8003087E71B68DFF82CB0DB68DB68DC
:1027E0005B68CBF800307EE74FF0FF33CBF800306A
:1027F000CAE700BF700E002080090020740E002080
:1028000084090020280E0020240E002088090020C2
:102810007C090020F80D00202DE9F04F414D83B0D8
:1028200001F0D0FB2B68013B2B602B68002B61D1A2
:102830003D4B1B68002B5DD03C4E3368002B6ED0A7
:102840003B4FDFF8FC90DFF8FC80DFF8FCA0F3687A
:10285000DC6804F1040B04F1180001F02FF858466D
:1028600001F02CF8E36A3A6803EB8300934259467F
:1028700009EB800088BF3B6000F0F8FFD8F800301B
:10288000E26ADB6A9A423DD30123CAF8003033681A
:10289000002BDCD1274B1A681268002A3AD01A683C
:1028A000254BD268D26852681A60244E346894B1BD
:1028B000012706E0FFF70CFF08B1CAF80070013CE1
:1028C00008D02B68002BF5D03368013C03F10103DD
:1028D0003360F6D13460DAF800305BB14FF0E023BA
:1028E0004FF08052C3F8042DBFF34F8FBFF36F8FAB
:1028F000012000E00020019001F086FB019803B068
:10290000BDE8F08F3368002BA1D10A4B1A6812681A
:10291000002AC4D1084B4FF0FF321A60C5E7DFF838
:1029200028A0C2E7F00D0020E80D0020300E0020A6
:10293000F80D002080090020240E00202C0E00201D
:10294000880900207C090020740E002030B587B073
:102950000B9CC4B10C9D6DB1BC250595059DBC2D8E
:102960001AD04FF0500383F31188BFF36F8FBFF37A
:102970004F8FFEE74FF0500383F31188BFF36F8F43
:10298000BFF34F8FFEE74FF0500383F31188BFF37F
:102990006F8FBFF34F8FFEE70C9D2C63022485F8E9
:1029A000B94004ACCDE901450A9C0094059CFFF7B1
:1029B00093FD0C98FFF708FD049807B030BD00BFE9
:1029C0002DE9F043074685B09000154688469946A4
:1029D00001F076F9D8B10446BC2001F071F9064641
:1029E000D0B10463002486F8B9400D9C01940C9C7E
:1029F00002964B462A46414638460094FFF76CFD46
:102A00003046FFF7E1FC012005B0BDE8F0834FF050
:102A1000FF3005B0BDE8F083204601F00BFA4FF01F
:102A2000FF30F1E7F8B550B94FF0E0234FF0805296
:102A3000C3F8042DBFF34F8FBFF36F8FF8BD1E4D4A
:102A40002B6843B14FF0500383F31188BFF36F8FAE
:102A5000BFF34F8FFEE72B68013304462B60174B03
:102A6000174E1F683068043000F028FF3368E419FF
:102A70005C6010D3134B18683168043100F006FF16
:102A80002B68A3B94FF0500383F31188BFF36F8F06
:102A9000BFF34F8FFEE70C4B18683168043100F02C
:102AA000F5FE0A4B1A68944238BF1C60E8E7FFF74E
:102AB000B3FE0028B8D0F8BDF00D0020700E002045
:102AC0007C0900208409002080090020240E0020B9
:102AD00030B58BB0002407AA06A905A8CDE90544A6
:102AE000FFF7C2F8069BCBB1059D75B1BC220992D8
:102AF0000999079ABC291AD04FF0500383F3118823
:102B0000BFF36F8FBFF34F8FFEE74FF0500383F398
:102B10001188BFF36F8FBFF34F8FFEE74FF0500365
:102B200083F31188BFF36F8FBFF34F8FFEE702214E
:102B300008A82B6385F8B9102346CDE901051B4988
:102B4000099800941A48FFF7C7FC2846FFF73CFC99
:102B5000089BEBB101F056F801281BD14FF0500350
:102B600083F31188BFF36F8FBFF34F8F114B124A5E
:102B70001B68124954331360114A124B4FF0FF3552
:102B80000D6010601C600BB0BDE8304001F0A4BACD
:102B90000BB030BD0130FBD14FF0500383F31188EF
:102BA000BFF36F8FBFF34F8FFEE700BFD06D0008FC
:102BB000312600087C09002008000020240E002097
:102BC000440E0020700E0020024A13680133136087
:102BD000704700BFF00D0020064B1B6843B94FF053
:102BE000500383F31188BFF36F8FBFF34F8FFEE75E
:102BF000FFF712BEF00D0020014B1868704700BFB0
:102C0000700E0020054B1B680BB9FFF761BD044A2D
:102C10001368013300201360704700BFF00D0020DF
:102C20002C0E002038B5224B1B681BB1214B012212
:102C30001A6038BD1F4A204C13602268236812684E
:102C40001B6B9A422ED91D4D1D492B6803EB830245
:102C5000920098008A5842B9DBB1013B03EB830232
:102C6000980051F82220002AF6D0C21801EB820009
:102C700002464168496841600832914204BF496890
:102C80004160CA6822602B6023680E4A5433136087
:102C900038BD4FF0500383F31188BFF36F8FBFF33C
:102CA0004F8FFEE7206821683431FEF7FBFFCAE74B
:102CB000F00D0020740E00207C090020F80D00208B
:102CC0008809002008000020D0B170B51A4D0C46CC
:102CD0002968183100F0DAFD184B1E6828680430A6
:102CE00000F0ECFD631C14D02B68A4195C6017D3B2
:102CF000134B18682968BDE87040043100F0C6BD68
:102D00004FF0500383F31188BFF36F8FBFF34F8FE2
:102D1000FEE729680B48BDE87040043100F0A6BD0D
:102D2000094B18682968043100F0B0FD074B1A6898
:102D3000944238BF1C6070BD7C090020700E0020DA
:102D400084090020480E002080090020240E002065
:102D500030B370B51D4E0C4631681546183100F081
:102D600085FD1B4B85B91D683068043000F0A6FD59
:102D7000336864195C601CD3164B18683168BDE871
:102D80007040043100F082BD1B683068043000F0F0
:102D900095FD31681048BDE87040043100F066BD13
:102DA0004FF0500383F31188BFF36F8FBFF34F8F42
:102DB000FEE70A4B18683168043100F067FD084BE4
:102DC0001A68944238BF1C6070BD00BF7C090020A7
:102DD000700E002084090020480E00208009002089
:102DE000240E002030B5C368DC6883B0002C2BD0E3
:102DF00004F11805284600F061FD184B1B687BB1F3
:102E00001748294600F032FD164BE26A1B68DB6A60
:102E10009A4285BF144B01200020186003B030BDDA
:102E2000211D0846019100F049FD104AE36A10682F
:102E3000019983420E4888BF136003EB830300EBC4
:102E4000830000F013FDDFE74FF0500383F3118898
:102E5000BFF36F8FBFF34F8FFEE700BFF00D002071
:102E6000300E00207C090020740E0020F80D002098
:102E700088090020034A044B12681B68C0E900233C
:102E8000704700BF280E0020700E002028B3F0B558
:102E90000D4683B0C1B1044601F094F82B681D4A79
:102EA000581C116830D0DFF870C0D4E90060DCF83D
:102EB0000070BE421AD0884218D80120019001F05B
:102EC000A3F8019803B0F0BD4FF0500383F31188CD
:102ED000BFF36F8FBFF34F8FFEE74FF0500383F3C5
:102EE0001188BFF36F8FBFF34F8FFEE7A1EB000E8A
:102EF00073450BD95B1ADCF80010126803442B6091
:102F00000020C4E90012D9E70020D7E700232B6096
:102F10000120D3E7700E0020280E0020014B012273
:102F20001A607047740E0020054B1B6833B1054BC7
:102F30001B68002B0CBF0220002070470120704747
:102F4000440E0020F00D002018B310B51E4B1C6875
:102F5000844282B008D04FF0500383F31188BFF34E
:102F60006F8FBFF34F8FFEE7236D4BB1E16AE26CC9
:102F7000013B9142236500D06BB1002002B010BD2F
:102F80004FF0500383F31188BFF36F8FBFF34F8F60
:102F9000FEE700207047211D0846019100F08EFCDD
:102FA000E36C0A4AE362C3F13800A061106801993A
:102FB0008342074888BF136003EB830300EB830061
:102FC00000F054FC0120D9E77C090020F80D002016
:102FD0008809002070B50446006CA66B20B92568EE
:102FE0004DB30136A66370BD154602467DB96068D3
:102FF00001F03DFA6368226C1344A2686360934257
:1030000024BF2368636001362846A66370BDE0686C
:1030100001F02DFA226CE36851429B1A2268E360AA
:10302000934202D2A3680B44E360022D08D001361C
:103030000020A66370BDA068FFF786FFA560D0E7FB
:10304000012E38BF01260020CCE700BF30B583B089
:103050009DF8184040B94FF0500383F31188BFF337
:103060006F8FBFF34F8FFEE71D467BB102B3B1B147
:1030700050230193019B502B27D04FF0500383F333
:103080001188BFF36F8FBFF34F8FFEE74FF05003F0
:1030900083F31188BFF36F8FBFF34F8FFEE74FF0BD
:1030A000500383F31188BFF36F8FBFF34F8FFEE799
:1030B000002935D150220192019A502ADDD10122F6
:1030C00085F84620019B2A4604E04FF0010C019B45
:1030D00085F846C0C5E90F012A6000F073FFD5E905
:1030E0000F122868686002FB01F18A1A0144A96086
:1030F00000210244A963FF2185F84410EA6085F8A5
:10310000451005F1100000F0A1FB05F1240000F0CE
:103110009DFB00F079FF284685F84C4003B030BD98
:103120004FF0500383F31188BFF36F8FBFF34F8FBE
:10313000FEE700BF2DE9F04385B00192002800F0C2
:10314000A48088461F460446002900F09180022F83
:103150000BD1E36B012B08D04FF0500383F31188A0
:10316000BFF36F8FBFF34F8FFEE7FFF7DDFE05461E
:10317000002800F09380002504F1240600F022FFCF
:10318000A26BE36B9A42C0F0EF80022F00F0EC805C
:103190000198002800F00181002D00F0E18000F08E
:1031A00033FFFFF711FD00F00DFF94F84430FF2BC3
:1031B00004BF002384F8443094F84530FF2B04BF4B
:1031C000002384F8453000F01FFF01A902A8FFF793
:1031D0005DFE002840F0E68000F0F4FEA26BE36B99
:1031E0009A4268D000F010FF00F0ECFE94F8452001
:1031F00055B2002D04DC11E06A1ED3B255B26BB19A
:10320000636A304653B1FFF7EDFD0028F4D0FFF7B5
:1032100085FE6A1ED3B255B2002BF1D1FF2384F88C
:10322000453000F0F1FE00F0CDFE94F8442055B298
:10323000002D14DD04F1100903E06A1ED3B255B26B
:103240006BB12369484653B1FFF7CCFD0028F4D099
:10325000FFF764FE6A1ED3B255B2002BF1D1FF23F3
:1032600084F8443000F0D0FEFFF7B6FC012585E776
:10327000036C002B3FF46BAF4FF0500383F31188C6
:10328000BFF36F8FBFF34F8FFEE74FF0500383F311
:103290001188BFF36F8FBFF34F8FFEE7019B002BA9
:1032A0003FF46AAF4FF0500383F31188BFF36F8F81
:1032B000BFF34F8FFEE704F1100900F0A5FE01995E
:1032C0004846FFF701FD00F07DFE94F845305DB201
:1032D000002D04DC11E06B1EDAB25DB26AB1636AE4
:1032E000304653B1FFF77EFD0028F4D0FFF716FEFD
:1032F0006B1EDAB25DB2002AF1D1FF2384F84530AB
:1033000000F082FE00F05EFE94F844305DB2002DC5
:1033100004DC11E06B1EDAB25DB26AB12369484683
:1033200053B1FFF75FFD0028F4D0FFF7F7FD6B1EE8
:10333000DAB25DB2002AF1D1FF2384F8443000F004
:1033400063FEFFF749FC002890D14FF0E0234FF0D7
:103350008052C3F8042DBFF34F8FBFF36F8F85E703
:1033600002A8FFF787FD1AE73A4641462046FFF7D5
:1033700031FE636A002B53D148B14FF0E0234FF088
:103380008052C3F8042DBFF34F8FBFF36F8F00F04F
:103390003BFE012005B0BDE8F083009000F034FE54
:1033A0000098F7E700F00EFE94F845305DB2002D6E
:1033B00010DD04F1240603E06B1EDAB25DB24AB1FF
:1033C000636A304633B1FFF70DFD0028F4D0FFF7F4
:1033D000A5FDF1E7FF2384F8453000F015FE00F06D
:1033E000F1FD94F844305DB2002D10DD04F11006BB
:1033F00003E06B1EDAB25DB24AB12369304633B1E5
:10340000FFF7F0FC0028F4D0FFF788FDF1E7FF2379
:1034100084F8443000F0F8FDFFF7DEFB0020B9E748
:1034200004F12400FFF7DEFC0028B0D0A5E700BFC0
:103430002DE9F04385B00192002800F05F810F462E
:103440000446002900F09480FFF76EFD002800F08C
:103450009C8000F0B7FDA56B002D72D1019B002B65
:1034600000F0F18002A8FFF705FDA84604F124064C
:1034700000F0CAFDFFF7A8FB00F0A4FD94F844306B
:10348000FF2B08BF84F8448094F84530FF2B08BF19
:1034900084F8458000F0B8FD01A902A8FFF7F6FC0A
:1034A00000287FD100F08EFDA36B002B00F0D180AF
:1034B00000F0AAFD00F086FD94F845305DB2002DC5
:1034C00004DC11E06B1EDAB25DB26AB1636A3046A9
:1034D00053B1FFF787FC0028F4D0FFF71FFD6B1EE8
:1034E000DAB25DB2002AF1D1FF2384F8453000F052
:1034F0008BFD00F067FD94F844305DB2002D14DDC3
:1035000004F1100903E06B1EDAB25DB26AB12369FF
:10351000484653B1FFF766FC0028F4D0FFF7FEFCE5
:103520006B1EDAB25DB2002AF1D1FF2384F8443079
:1035300000F06AFDFFF750FB00F044FDA56B002D85
:103540007DD0226C52B1E168A36811449942E160D8
:1035500024BF2168E160384600F089FF013DA56382
:103560002369002B40F0D38000F04EFD01206DE078
:10357000036C002B3FF468AF4FF0500383F31188C6
:10358000BFF36F8FBFF34F8FFEE7019B002B3FF41C
:1035900060AF4FF0500383F31188BFF36F8FBFF319
:1035A0004F8FFEE700F00EFD94F845305DB2002D20
:1035B00004DC11E06B1EDAB25DB26AB1636A3046B8
:1035C00053B1FFF70FFC0028F4D0FFF7A7FC6B1EE8
:1035D000DAB25DB2002AF1D1FF2384F8453000F061
:1035E00013FD00F0EFFC94F844305DB2002D14DDC3
:1035F00004F1100903E06B1EDAB25DB26AB123690F
:10360000484653B1FFF7EEFB0028F4D0FFF786FCE5
:103610006B1EDAB25DB2002AF1D1FF2384F8443088
:1036200000F0F2FCFFF7D8FA00F0CCFCA36B53B12A
:1036300000F0EAFC00F0C6FCA56B002D81D1019BD7
:10364000002B7FF415AF00F0DFFC002005B0BDE8D3
:10365000F08300F0D9FC01993046FFF735FB00F00C
:10366000B1FC94F845305DB2002D04DC11E06B1E16
:10367000DAB25DB26AB1636A304653B1FFF7B2FBAA
:103680000028F4D0FFF74AFC6B1EDAB25DB2002AC4
:10369000F1D1FF2384F8453000F0B6FC00F092FC35
:1036A00094F844305DB2002D14DD04F1100903E0FC
:1036B0006B1EDAB25DB26AB12369484653B1FFF7B7
:1036C00091FB0028F4D0FFF729FC6B1EDAB25DB243
:1036D000002AF1D1FF2384F8443000F095FCFFF775
:1036E0007BFA0028A6D14FF0E0234FF08052C3F8B8
:1036F000042DBFF34F8FBFF36F8F9BE74FF0500345
:1037000083F31188BFF36F8FBFF34F8FFEE704F190
:103710001000FFF767FB00283FF426AF4FF0E023CF
:103720004FF08052C3F8042DBFF34F8FBFF36F8F5C
:103730001AE700BF124B1A687AB19A6862B11A6927
:1037400092B19A6992B11A6A92B19A6A92B11A6B5D
:1037500092B19A6B92B17047012203EBC20C43F80D
:103760003210CCF8040070470222F6E70322F4E797
:103770000422F2E70522F0E70622EEE70722ECE753
:10378000780E002070B505460E46144600F01AFC6F
:1037900095F84430FF2B04BF002385F8443095F89A
:1037A0004530FF2B04BF002385F8453000F02CFC8A
:1037B000AB6B002B43D000F005FC95F845305CB2B4
:1037C000002C14DD05F1240603E0631EDAB25CB2BE
:1037D0006AB16B6A304653B1FFF704FB0028F4D09E
:1037E000FFF79CFB631EDAB25CB2002AF1D1FF2323
:1037F00085F8453000F008FC00F0E4FB95F8443013
:103800005CB2002C14DD05F1100603E0631EDAB291
:103810005CB26AB12B69304653B1FFF7E3FA002876
:10382000F4D0FFF77BFB631EDAB25CB2002AF1D161
:10383000FF2385F84430BDE8704000F0E5BB224628
:10384000314605F12400FFF783FAB4E700F10803DD
:103850004FF0FF310022C0E90131C0E903330260BB
:10386000704700BF00230361704700BF43689A6838
:103870008A60026810B49C684B6001326160996094
:103880005DF8044B08610260704700BF30B40D68FA
:103890006B1C10D000F108031C465B681A68AA4232
:1038A000FAD902684B60013299608C6061600861EE
:1038B00030BC0260704704696368F2E7036910B4C2
:1038C000D0E901125C688A608442516008BF5A6086
:1038D0001A685DF8044B0021013A01611A6018680A
:1038E000704700BF2DE9F043224EDFF8909085B07D
:1038F0004FF000080DE0DB68DC681F68251D2846D6
:10390000FFF7DCFF236A2046984794F828305B07CE
:103910000AD433681A68002AEDD1174A1168316059
:10392000136005B0BDE8F083A3693B449F4229467C
:1039300005D2306863602461FFF7A8FFE9E7D9F892
:1039400000306BB1CDE900870294FFF7EDFA002358
:10395000D9F800001A466946FFF7ECFB0028D8D1D9
:103960004FF0500383F31188BFF36F8FBFF34F8F76
:10397000FEE700BFB80E0020BC0E0020DC0F0020C8
:103980002DE9F04F9B4E9C4D9C4C8BB04FF0E029A5
:103990004FF0805833681F68002F00F0A880DB6864
:1039A0001F68FFF711F9FFF727F92A68904282464E
:1039B000C0F0AE80B842286080F0B4800022206859
:1039C000A7EB0A01FFF7DEFEFFF706F928B9C9F8F1
:1039D000048DBFF34F8FBFF36F8F2068002202A9C1
:1039E000FFF726FD0028D5D0029B002B76DB049F35
:1039F0007B6913B1381DFFF761FFFFF7FDF82B68F6
:103A000098428246C0F08B80029BC5F800A0092B2B
:103A1000E3D8DFE803F0050505533D5A0505533D9E
:103A200097F82830BA693F6143F0010387F82830DE
:103A3000039B99182CBF012000205145796000F2AA
:103A40008C80AAEB03039A4232D83B6A38469847E7
:103A500097F828305B07C0D5236883B10022BB6983
:103A60000692039A089713440793FFF75DFA002321
:103A700020681A4606A9FFF75DFB0028ADD14FF07C
:103A8000500383F31188BFF36F8FBFF34F8FFEE7AF
:103A900097F8283043F0010387F82830039BBB6177
:103AA000002B00F09D80534453457B603F615ED8FE
:103AB000534B391D1868FFF7E9FE8EE797F8283059
:103AC00023F0010387F8283087E797F828309A0712
:103AD00052D523F0010387F828307EE7039BDDE908
:103AE00004019847029B002BFFF677AF7FE7FFF7B3
:103AF0006BF8FFF781F82A688242824608D8404B6B
:103B0000C5F800A01A681268B2FA82F2520956E7A4
:103B1000FFF7E8FEC5F800A0FFF75EF85DE7FFF7E6
:103B2000E1FE71E7FFF758F83268D268D2F80CB0BE
:103B30000BF1040108460191FFF7C0FE9BF8280035
:103B4000019910F0040F1BD120F001008BF8280020
:103B5000DBF82030584698473FE7534502D9002804
:103B60003FF473AF3068391DFFF790FE35E73068DA
:103B7000391DFFF78BFE30E7384600F05BF92CE784
:103B8000DBF81820CBF810B0B8188245CBF8040049
:103B900003D23068FFF77AFEDAE7AAEB07039A420E
:103BA00019D8236873B1002306930797CDF820B086
:103BB000FFF7BAF9002320681A4606A9FFF7BAFAF8
:103BC0000028C5D14FF0500383F31188BFF36F8FE6
:103BD000BFF34F8FFEE70A4B1868FFF757FEB7E7B2
:103BE0004FF0500383F31188BFF36F8FBFF34F8FF4
:103BF000FEE700BFB80E0020880F0020DC0F002079
:103C0000BC0E0020F0B5234C89B000F0DBF925682C
:103C100035B300F0F9F92368CBB1002407AA06A94F
:103C200005A8CDE90544FEF72DF8DDE905010223DD
:103C3000CDE901100093079A174918482346FEF76B
:103C400085FE174B186010B1012009B0F0BD4FF090
:103C5000500383F31188BFF36F8FBFF34F8FFEE7DD
:103C6000104F114E3846FFF7F1FD3046FFF7EEFDDD
:103C70000E4A009517600E4A0E4B166010210E4A30
:103C80000A20FFF7E3F920600028C2D00B49FFF7B4
:103C900051FDBEE7DC0F0020E06D0008813900080F
:103CA000E00F0020600F0020740F0020B80E0020ED
:103CB000BC0E00208C0F0020C00E0020D86D000824
:103CC0002DE9F0410646FEF77FFF534B1D68002D9E
:103CD00070D0524B1F683E422ED16EB306F10804DD
:103CE00076071CBF24F0070408342CB3DFF840C16A
:103CF000DCF80060A6421FD34948036803E01A6855
:103D000022B1184613465968A142F8D3AB4213D0EA
:103D100098460A1B58F808EBC0F800E0102A2BD987
:103D20001919480711D04FF0500383F31188BFF3DE
:103D30006F8FBFF34F8FFEE7FEF74EFF4FF0000887
:103D4000FDF7B2FF4046BDE8F0814A60344A5C604E
:103D5000144612689142FBD8606804EB000E71456E
:103D60004AD0D1F804E001EB0E0082424BD00A6049
:103D70008C4218BF216059682A482B4A0468761A79
:103D8000A64238BF066039430020C3E9000113682A
:103D9000CCF8006001331360FEF71EFF18F0070F28
:103DA000D0D04FF0500383F31188BFF36F8FBFF370
:103DB0004F8FFEE71D49194C4F0714BFCA1D0A4615
:103DC00001F57D51A1F1080525F0070518BF22F086
:103DD000070214491D601046AB1A154A0B601049C2
:103DE00013604FF00047002208604A602760C5E971
:103DF0000022C0E900536EE7496800EB010EC4F8E9
:103E000004E02146AFE7AA42B1D0506812680A60C8
:103E100070444860ACE700BFE40F0020284F00204A
:103E20003C4F0020304F0020344F0020E80F00208E
:103E30002C4F0020D0B12B4A50F8043C126813429A
:103E40000BD050F8081C91B14FF0500383F3118848
:103E5000BFF36F8FBFF34F8FFEE74FF0500383F335
:103E60001188BFF36F8FBFF34F8FFEE7704710B518
:103E700023EA020382B040F8043C1B4C0190FEF799
:103E8000A3FE0198226850F8041C184B0A44083815
:103E900022601A461B689842FBD8546802EB040E55
:103EA00070451AD000EB010C63450CD003608242D0
:103EB00018BF10600E4A13680133136002B0BDE8EA
:103EC0001040FEF789BE0B4C2468A342EED0D3E924
:103ED00000342144C0E90031E9E721445160104633
:103EE000E0E700BF284F00202C4F00203C4F00206F
:103EF000384F0020E40F002008480068006880F375
:103F000008884FF0000080F3148862B661B6BFF3F2
:103F10004F8FBFF36F8F00DF00BF000008ED00E0A0
:103F2000DFF80C00016841F4700101607047000087
:103F300088ED00E00E4B1B6882B000220133019235
:103F400008D04FF0500383F31188BFF36F8FBFF396
:103F50004F8FFEE74FF0500383F31188BFF36F8F4D
:103F6000BFF34F8F019B002BFCD002B0704700BF06
:103F70000400002010B44FF08073074C40F8043C5C
:103F800021F001016FF0020340E9034140E90932E9
:103F90005DF8044B44387047353F000800000000CE
:103FA000074B19680868B0E8F04F80F30988BFF341
:103FB0006F8F4FF0000080F311887047AFF30080DF
:103FC0007C0900204FF0500383F31188BFF36F8FFB
:103FD000BFF34F8F0B4A13680133012B136000D0DE
:103FE00070474FF0E023D3F8043DDBB2002BF7D04D
:103FF0004FF0500383F31188BFF36F8FBFF34F8FE0
:10400000FEE700BF04000020084A136843B94FF0E0
:10401000500383F31188BFF36F8FBFF34F8FFEE719
:10402000013B13600BB983F3118870470400002033
:10403000EFF30980BFF36F8F154B1A681EF0100F56
:1040400008BF20ED108A20E9F04F10602DE909002B
:104050004FF0500080F31188BFF34F8FBFF36F8F85
:10406000FEF7E0FD4FF0000080F3118809BC1968ED
:104070000868B0E8F04F1EF0100F08BFB0EC108ACF
:1040800080F30988BFF36F8F704700BFAFF30080E4
:104090007C09002008B54FF0500383F31188BFF36B
:1040A0006F8FBFF34F8FFEF7ADFD28B14FF0E023C8
:1040B0004FF08052C3F8042D002383F3118808BD0C
:1040C0004FF0E023002203481A6107219A615861EA
:1040D000196170473F1901004FF0E023484AD3F8B7
:1040E000001D914241D0D3F8002D464B9A4233D067
:1040F00070B5454B454C1A78454884B0FF21D2B283
:10410000029219701B78DBB28DF807309DF80730EA
:104110009DF8072003F05003072112062370016069
:1041200048BF06220FD59DF807305B00DBB28DF843
:1041300007309DF807301B06114602F1FF32F2D41A
:1041400003291BD001604FF0500383F31188BFF3A4
:104150006F8FBFF34F8FFEE74FF0500383F311884B
:10416000BFF36F8FBFF34F8FFEE74FF0500383F322
:104170001188BFF36F8FBFF34F8FFEE7029B224A78
:10418000244D4FF0E0244FF44071DBB20160137016
:10419000D4F8203D43F47003C4F8203DD4F8203D0A
:1041A00043F07043C4F8203D0026FFF789FF2E60DE
:1041B000FFF7B6FED4F8343F43F04043C4F8343F31
:1041C000FFF79AFEFEF72EFD2B680396013308D009
:1041D0004FF0500383F31188BFF36F8FBFF34F8FFE
:1041E000FEE74FF0500383F31188BFF36F8FBFF3E7
:1041F0004F8F039B002BFCD0002004B070BD00BF8C
:1042000071C20F4170C20F4100E400E0444F002032
:10421000484F00200400002008B5062000F0DEFE14
:104220000120FDF7E7FD0000014B1868704700BF53
:1042300008000020002310B50446C0E90033C0E99F
:104240000433836081814366C281836119460822F9
:104250005C3000F01AF9054B6362054BA362054B15
:10426000E362054B2462236310BD00BF15500008B4
:10427000375000086F50000893500008014900F0C3
:10428000AFB800BFE15E000870B568224D1E55430F
:104290000E4605F1740100F021F9044640B10021F9
:1042A000C0E900160C30A06005F1680200F0EDF8DE
:1042B000204670BD014800F0D8B800BF4D4F002027
:1042C000014800F0D3B800BF4D4F0020014800F076
:1042D000CCB800BF4E4F0020014800F0C7B800BF67
:1042E0004E4F002010B50446FFF7F0FFA3691BB145
:1042F000BDE81040FFF7F0BFC4E912332365134B4C
:10430000134A1B68A262A34204BF0123A361204693
:1043100000F020F86060204600F01CF8A060204605
:1043200000F018F80022E06004216068FFF782FFC7
:10433000A06801220921FFF77DFFE0680222122117
:10434000FFF778FF0123A361D2E700BF486E0008A2
:104350007D420008F8B50746FFF7ACFF1E4B1E680C
:10436000B36913B93046FFF7BDFF4836D6E90134CB
:10437000013B03D533680BB33668F7E7B4F90C504B
:10438000D5B9164BE36004F15800656600F06CF88F
:10439000FFF796FFC4E90155C4E904552560A561FE
:1043A0000822294604F15C0000F06FF8C4E90D55BD
:1043B000C4E912552046F8BD6834D9E704213846CF
:1043C000FFF762FF044630600028D5D1FFF778FF81
:1043D0000C233B60EEE700BF486E00080100FFFFC2
:1043E0002DE9F8430646884600F148040027D4E941
:1043F0000195B9F1010905D52468002CF7D138469B
:10440000BDE8F883AB89012B07D9B5F90E3001332C
:1044100003D029463046C04707436835E9E7000026
:1044200070B50D4D0D4C641BA4100026A64209D199
:104430000B4D0C4C02F0A4FC641BA4100026A642F9
:1044400005D170BD55F8043B98470136EEE755F8A5
:10445000043B98470136F2E7187300081873000808
:10446000187300081C7300087047704770470A44AF
:10447000914200F1FF3300D1704710B511F8014BA4
:1044800003F8014F9142F9D110BD02440346934213
:1044900000D1704703F8011BF9E7000070B50E4E1C
:1044A0000C463168054611B900F060FD30602146C8
:1044B000284600F05BFD431C0AD0C41C24F0030412
:1044C000A04207D0211A284600F050FD013001D14A
:1044D0004FF0FF34204670BD544F00202DE9F041CD
:1044E000CD1C25F0030508350C2D38BF0C25002DFB
:1044F000074601DBA94205D90C233B600026304664
:10450000BDE8F0812E4E01F045FD33681C4634BBFA
:1045100029463846FFF7C2FF431C04464DD1346894
:104520002646002E40D123683146384604EB030866
:1045300000F01CFD80453AD1216803356D1A25F045
:10454000030508350C2D38BF0C2529463846FFF7E2
:10455000A5FF01302BD023682B4423600EE0226896
:10456000521B1ED40B2A16D96119A342256018BF0D
:104570005960636808BF316062514B60384604F18E
:104580000B0601F00DFD26F00706231DF21AB6D02A
:104590009B1BA350B3E76268A3420CBF32605A6012
:1045A000ECE723466468B2E734467668B9E70C2343
:1045B0003B60384601F0F4FCA1E72560DEE700BF70
:1045C000504F00202DE9FF4755EC104B002D0E46B3
:1045D00019462B46BBBF05F100431D4600232D2382
:1045E0000B700D9BDDF830A0914623F02008BCBF76
:1045F00022461446B8F1460F05D0B8F1450F00D158
:104600000136022100E0032103AB019302AB0093CA
:1046100045EC104B5346324600F0EEFDB8F1470F23
:10462000074602D119F0010F22D0B8F1460F07EB6F
:10463000060910D13B78302B0AD1002200232046F6
:104640002946FDF7B1F918B9C6F10106CAF80060AC
:10465000DAF8003099440022002320462946FDF76D
:10466000A3F908B1CDF80C903022039B4B4507D33A
:10467000039B0E9ADB1B3846136004B0BDE8F0873D
:10468000591C03911A70F0E7F7B503460029B8BF2B
:10469000494203F8022BB4BF2D222B220929427074
:1046A0002ADD0DF10704A4460A27A6460A4691FB17
:1046B000F7F607FB16153035632A04F1FF340EF8C0
:1046C000015C3146F1DC3031AEF1020504F8011C29
:1046D000441C294661450AD30DF10902A2EB0E02E2
:1046E000654588BF00221344181A03B0F0BD11F8C5
:1046F000012B04F8012FEDE7302330318370C170B6
:10470000031DF1E72DE9F04F2DED028B8DB00C4626
:10471000DDF8608016461F46054601F01DFCD0F806
:1047200000A05046FCF7BEFC00230A9323680593C3
:10473000D8F8003094F818B0073323F0070303F1DA
:104740000802C8F80020D3E90023C4E91223D4E901
:10475000128929F000430793CDF8188008EE100A5B
:104760009F4BDDE906014FF0FF32FDF74FF988BBA3
:10477000DDE906019A4B4FF0FF32FDF729F948BBFE
:104780000022002340464946FDF718F910B12D23B9
:1047900084F84330934B9448BBF1470F94BF98463D
:1047A000804603232361059B23F0040222604FF01F
:1047B0000009009733460BAA2146284600F0D8F995
:1047C000013040F090804FF0FF300DB0BDEC028B17
:1047D000BDE8F08F42464B4640464946FDF716F984
:1047E00040B14B46002BBCBF2D2384F843307F489B
:1047F0007F4BD1E763680BF0DF0206925A1C3FD172
:1048000006236360059B616843F480620023039381
:104810000AABCDE901B309AB49EC108B00932260E0
:104820000DF123032846FFF7CDFE069B0999472B80
:10483000804608D1C81C02DB6368994241DDABF1B8
:10484000020B5FFA8BFBBBF1650F20D801395A468A
:1048500004F150000991FFF717FF0A9A1318012A73
:104860008146236102DC2268D20701D5013323612E
:104870009DF82330002B9CD02D2384F8433098E7FB
:10488000069A472ABED1002BBCD10123B9E7BBF160
:10489000660F18D1002963680BDD216113B9226806
:1048A000D00702D501330B442361A1654FF0000905
:1048B000DEE713B92268D20701D50233F4E70123FA
:1048C000F2E74FF0670B0A9B994205DB23682161F1
:1048D000D807EAD54B1CE7E70029D4BFC1F1020293
:1048E00001221344E0E723685A0507D423694246AE
:1048F00031462846B84701302CD164E7BBF1650F3B
:1049000040F2E080D4E9120100220023FDF74CF8C8
:10491000002834D0374A012331462846B8470130B1
:104920003FF451AFDDE909239A4202DB2368D8073F
:1049300010D518EE103A524631462846B847013095
:104940003FF441AF4FF0000804F11A090A9B013B04
:10495000434509DC23689B0700F10581E0680B9B58
:104960009842B8BF184630E701234A4631462846E8
:10497000B84701303FF427AF08F10108E6E7099B8B
:10498000002B39DC1B4A012331462846B847013049
:104990003FF419AFDDE90923134302D12368D90796
:1049A000D8D518EE103A524631462846B84701305D
:1049B0003FF409AF4FF0000904F11A0A099B5B426A
:1049C0004B4501DC0A9B92E70123524631462846BB
:1049D000B84701303FF4F7AE09F10109EEE700BF37
:1049E000FFFFEF7F4C6E0008506E0008586E000805
:1049F000546E00085C6E00080A9AA36D9A42A8BF24
:104A00001A46002A914637DC4FF0000B29EAE97973
:104A100004F11A02A36D0593A3EB09035B4533DC94
:104A2000DDE909239A423BDB2368DA0738D40A9B85
:104A3000059A09999A1AA3EB01099145A8BF9146D5
:104A4000B9F1000F35DC4FF0000829EAE97904F1EB
:104A50001A0ADDE909239B1AA3EB090343457FF7F3
:104A600079AF0123524631462846B84701303FF41A
:104A7000AAAE08F10108ECE7134631464246284643
:104A8000B8470130C0D19EE6012331462846059241
:104A9000B84701303FF497AE059A0BF1010BB9E727
:104AA00018EE103A524631462846B8470130BED17A
:104AB00089E6059A4B46424431462846B8470130BC
:104AC000C1D180E60A9A012A01DCDB0738D501232F
:104AD000424631462846B84701303FF474AE18EEDE
:104AE000103A524631462846B84701303FF46BAE83
:104AF000D4E9120100220023FCF756FFD8B90A9B23
:104B000008F10102013B31462846B84701300ED179
:104B100059E60123524631462846B84701303FF452
:104B200052AE08F101080A9B013B4345F1DC4B46BC
:104B300004F15002DCE64FF0000804F11A0AF2E733
:104B400001234246DFE701234A4631462846B8475B
:104B500001303FF438AE08F10108E3680B995B1AA5
:104B60004345F0DCFAE64FF0000804F11909F4E7D8
:104B70002DE9F047164699468A680B69DDF82080D2
:104B80009342B8BF1346336091F8432007460C4662
:104B90000AB1013333602368990642BF3368023398
:104BA0003360256815F0060506D104F1190AE3689B
:104BB00032689B1AAB4226DC94F84320131E22680D
:104BC00018BF012392062BD404F14302494638460C
:104BD000C04701301ED02368E568326803F0060341
:104BE000042B08BFAD1AA36822690CBF25EAE5753E
:104BF00000259342C4BF9B1AED1800261A34B54213
:104C00001AD1002008E00123524649463846C047E1
:104C1000013003D14FF0FF30BDE8F0870135C6E722
:104C2000E1185A1C302081F84300224494F84510C2
:104C300082F843100233C7E701232246494638462B
:104C4000C0470130E6D00136D9E700002DE9FF4723
:104C50000F7E0C9D782F914680460C469A4601F1B6
:104C6000430207D8622F0AD8002F00F0D880582FAF
:104C700000F0A38004F1420584F842703AE0A7F105
:104C80006303152BF6D801A151F823F0E54C000879
:104C9000F94C0008754C0008754C0008754C00086C
:104CA000754C0008F94C0008754C0008754C00085C
:104CB000754C0008754C0008054E0008294D000889
:104CC000E74D0008754C0008754C0008274E000899
:104CD000754C0008294D0008754C0008754C0008FB
:104CE000EF4D00082B681A1D1B682A6004F142056D
:104CF00084F842300123A3E020682968060601F108
:104D000004030AD50E682B60002E03DA2D237642A9
:104D100084F843305E480A2319E00E682B6010F0D7
:104D2000400F18BF36B2EFE72B682068191D2960C5
:104D3000010601D51E6802E04606FBD51E885448D0
:104D40006F2F0CBF08230A23002184F843106568E5
:104D5000A560002DA2BF216821F0040121600EB9D9
:104D6000002D4DD01546B6FBF3F103FB1167C75D6F
:104D700005F8017D3746BB420E46F4D9082B0BD10E
:104D80002368DE0708D5236961689942DEBF3023B6
:104D900005F8013C05F1FF35521B2261CDF800A05A
:104DA0004B4603AA21464046FFF7E2FE01304CD1B4
:104DB0004FF0FF3004B0BDE8F087354881F845700A
:104DC0002968236851F8046B29601D0614D5DF0794
:104DD00044BF43F0200323601EB9236823F020035F
:104DE00023601023B0E7236843F020032360782377
:104DF000284884F84530E3E7590648BFB6B2E6E7ED
:104E00001546BBE72B6826686169181D28603506C2
:104E10001B6801D5196002E07006FBD519800023DC
:104E200023611546BAE72B681A1D2A601D6862685F
:104E300000212846FCF744F908B1401B6060636814
:104E40002361002384F84330A8E723692A464946B2
:104E50004046D0470130ABD023689B0713D4E068AD
:104E6000039B9842B8BF1846A4E70123324649463F
:104E70004046D04701309BD00135E36803995B1A67
:104E8000AB42F2DCEBE7002504F11906F5E700BFC1
:104E90005E6E00086F6E000838B50C46096805465E
:104EA00009B1FFF7F9FF21462846BDE8384001F077
:104EB00017BC00002C4B1B68834270B5044651D0D0
:104EC000436A43B1DB68002B4AD1636A196811B1A8
:104ED000204601F005FC616911B1204601F000FC9B
:104EE000616A11B1204601F0FBFBA16B11B12046B4
:104EF00001F0F6FBE16B11B1204601F0F1FB216CF2
:104F000011B1204601F0ECFBE16D11B1204601F03A
:104F1000E7FBA16D11B1204601F0E2FB616B11B11D
:104F2000204601F0DDFBA369E3B1A36A2046984760
:104F3000A16CB9B12046BDE87040FFF7ADBF49593B
:104F400041B90435636A802DD968F8D1204601F053
:104F5000C7FBBAE70E68204601F0C2FB3146EFE717
:104F60000025EFE770BD00BF0800002038B5064DF2
:104F70000023044608462B60FCF75EFF431C02D169
:104F80002B6803B1236038BD584F00201F2938B566
:104F900004460D4604D9162303604FF0FF3038BD98
:104FA000426C12B152F821304BB9204600F030F873
:104FB0002A4601462046BDE8384000F017B8012BCC
:104FC0000AD0591C03D1162303600120E7E700240F
:104FD00042F82540284698470020E0E7024B01466A
:104FE0001868FFF7D3BF00BF0800002038B5074D91
:104FF00000230446084611462B60FCF7F3FE431CD1
:1050000002D12B6803B1236038BD00BF584F002088
:10501000FCF7E6BE10B50C46B1F90E1001F0ACFB82
:105020000028ABBF636DA3891B1823F48053ACBF6A
:105030006365A38110BD2DE9F0411F468B89DB0517
:1050400005460C46164605D5B1F90E10022300227E
:1050500000F086FFA389B4F90E1023F48053A381D6
:1050600032463B462846BDE8F04100F017B810B57F
:105070000C46B1F90E1000F073FF431CA38915BF55
:10508000606523F4805343F48053A38118BFA38148
:1050900010BDB1F90E1000F013B8000038B5074D7F
:1050A00004460846114600222A601A46FCF7B6FE5E
:1050B000431C02D12B6803B1236038BD584F002038
:1050C00038B5064D0023044608462B60FCF7D0FE99
:1050D000431C02D12B6803B1236038BD584F002018
:1050E0002DE9F74F03690C69A3420746C0F281809E
:1050F000013C01F1140800F1140505EB8403019350
:1051000058F8243055F8242001339A424FEA840B92
:1051100008EB8409B2FBF3F631D34FF0000E4046A2
:10512000AC46F24650F8042B93B206FB03E34FEA79
:10513000134E9BB2AAEB0303DCF800A0120C13FA87
:105140008AF306FB02E20093009B4FEA124E92B2F2
:10515000C2EB1A4202EB2342BDF80030814543EA1C
:1051600002434CF8043B4FEA224ADBD255F80B309D
:105170002BB9019B043B9D421A462ED33C61384615
:1051800001F096F9002824DB013628464FF0000C88
:1051900058F8042BD0F800E093B2ACEB0303120CE8
:1051A00013FA8EF3C2EB1E4202EB23429BB243EA98
:1051B0000243C14540F8043B4FEA224CE8D255F87F
:1051C000242005EB840322B9043B9D421A460AD3EE
:1051D0003C61304603B0BDE8F08F1268043B002A02
:1051E000CCD1013CC7E71268043B002AF0D1013C56
:1051F000EBE70020EEE700002DE9F04F2DED048BEA
:1052000057EC106B93B0456ADDF88080069110EE84
:1052100010AA044609920C93BB4675B9102000F001
:10522000B1FE0246606220B9A74BEA21A74801F00F
:10523000B5FAC0E901550560C560636A196851B1E6
:105240005A684A60012393408B60204600F0EEFECE
:10525000636A00221A603B1EAABF002323F0004BA2
:10526000C8F800309A4BBCBF0122C8F8002033EACE
:105270000B031BD10C9A42F20F731360CBF3130391
:10528000334300F09285219B63B9924B22E0924B0D
:1052900001930833219A1360019813B0BDEC048B7D
:1052A000BDE8F08F8B4B01930333F3E7002200231B
:1052B00050465946FCF778FB4BEC19AB804658B189
:1052C0000C9A01231360219B002B00F06B8583480F
:1052D0001860431E0193DFE74BEC10AB10AA11A935
:1052E000204601F08BF9CBF30A5508EE100A002D89
:1052F00000F0848019EE903AC3F3130343F07F5714
:10530000564647F44017A5F2FF35CDF83880744B68
:10531000002230463946FBF727FF65A3D3E9002377
:10532000FCF7DAF864A3D3E90023FBF71FFF064676
:1053300028460F46FCF766F861A3D3E90023FCF783
:10534000CBF802460B4630463946FBF70FFF0646C0
:105350000F46FCF771FB00220090002330463946CF
:10536000FCF72CFB50B10098FCF74CF832463B465A
:10537000FCF71AFB10B9009B013B0093009B162B16
:105380005AD8009A574B03EBC203D3E9002351ECE0
:10539000190BFCF713FB002850D0009B013B009336
:1053A00000230B93109B5D1B6B1E059345BFC5F13E
:1053B00001030493002300234CBF05930493009B37
:1053C000002B3DDB059B009A0A92134405930023B2
:1053D0000793069B092B00F28980052BC4BF043B71
:1053E0000693069BA3F10203CCBF00250125032BE6
:1053F00000F28780DFE803F02D3A3859DDE91053D9
:105400001D4405F23243202BC1BFC3F1400305F216
:1054100012400BFA03F326FA00F0DABFC3F12003BF
:1054200006FA03F01843FBF7DDFF01230646A1F15E
:10543000F877013D0E936AE70123B2E70B90B1E7DD
:10544000049B009A9B1A04935342079300230A93E8
:10545000BFE700230893099B002B55DC0123CDE90E
:1054600002331A4609920CE00123F3E70023099A5C
:105470000893009B134402930133012B0393B8BF9D
:105480000123606A00224260042202F114069E4257
:1054900041683DD9204600F089FD019000283BD1AC
:1054A000114B02464FF4D571C0E60123DFE700BF80
:1054B00061436F63A787D23FB3C8608B288AC63F1A
:1054C000FB799F501344D33F8D6E0008A46E0008F3
:1054D0000000F07F896E0008806E00085D6E000895
:1054E0000000F83FE06F0008226F0008012500234C
:1054F000069308954FF0FF33CDE9023300221223C3
:10550000B0E701230893F5E7099BCDE90233B8E73B
:10551000013141605200B8E7636A019A1A60039B47
:105520000E2B00F29D80002D00F09A80009B002B36
:1055300032DDB74A03F00F0302EBC303D3E900895E
:10554000009BD8054FEA231716D5B24B51EC190B27
:10555000D3E90823FCF7EAF807F00F0782468B46E9
:105560000325AC4E57B942464B4650465946FCF7C8
:10557000DDF882468B4628E00225F2E7F90708D5D8
:1055800040464946D6E90023FBF7A6FF0135804691
:1055900089467F100836E5E700F09B80009B9D4F11
:1055A0005E429B4B06F00F0203EBC203D3E90023DC
:1055B00051EC190BFBF790FF361182468B46002306
:1055C0000225002E7AD1002BD3D10B9B002B00F0AB
:1055D0008280914B002250465946FCF7EFF9002893
:1055E00079D0039B002B76D0029B002B36DD009BED
:1055F000504659465F1E0022884BFBF76DFF029E06
:1056000082468B4601352846FBF7FCFE52465B4638
:10561000FBF762FF824B0022FBF7A8FDD046D9467C
:105620008246A1F1507B002E58D17E4B002240468D
:105630004946FBF799FD52465B4680468946FCF792
:10564000DBF9002840F0958252460BF100434046BA
:105650004946FCF7B3F9002840F089825BEC19ABAE
:10566000119B002BC0F24881009A0E2A00F344815E
:10567000674B03EBC203D3E90089099B002B80F23F
:10568000D580039B002B00F3D18040F06F82654BE7
:10569000002240464946FBF71FFF52465B46FCF797
:1056A000A1F9039E3746002840F04582019D312331
:1056B00005F8013B009B0133009340E2F20705D55A
:1056C000D7E90023FBF708FF0135012376100837DF
:1056D00077E7022579E7009F039E94E701994C4BF9
:1056E00031440D91089903EBC60353E902230029C5
:1056F00043D04D490020FCF719F852465B46FBF7B2
:1057000033FD019D82468B4649464046FCF794F99D
:105710000646FBF777FE02460B4640464946FBF736
:1057200023FD303605F8016B52465B4680468946BC
:10573000FCF744F9002863D142464B463649002025
:10574000FBF712FD52465B46FCF738F9002840F0A3
:10575000B5800D9B9D4281D0304B0022504659466A
:10576000FBF7BAFE2D4B82468B4640464946002247
:10577000FBF7B2FE80468946C6E750465946FBF71E
:10578000ABFE0D9B019D0F9382468B4649464046DA
:10579000FCF752F90646FBF735FE303602460B465B
:1057A00040464946FBF7E0FC05F8016B0D9B9D4226
:1057B000804689464FF0000224D11B4B5046594683
:1057C000FBF7D4FC02460B4640464946FCF714F969
:1057D000002873D152465B4613490020FBF7C4FCF6
:1057E00002460B4640464946FCF7E8F800283FF4DD
:1057F00035AF0F9D6B1E0F9315F8013C302BF8D081
:10580000009749E0054BFBF767FE80468946BDE7F8
:10581000E06F0008B86F00080000F03F000024406F
:1058200000001C40000014400000E03F019D56466F
:105830005F4642464B4630463946FBF777FFFCF75A
:10584000FBF88246FBF7DEFD42464B46FBF744FE83
:1058500002460B46304639460AF13006FBF784FC17
:1058600005F8016B019E039FAE1BB74202460B4633
:1058700035D1FBF77BFC42464B4606460F46FCF70C
:10588000BBF8D0B942464B4630463946FCF78CF857
:1058900010B11AF0010F10D1204618EE101A00F0C6
:1058A000C5FB002300982B700C9B01301860219BD6
:1058B000002B3FF4F1AC1D60EEE4009F2B461D462B
:1058C00013F8012D392A06D1019A9A42F7D101998C
:1058D000302201370A701A7801321A7090E7A64B0D
:1058E0000022FBF7F9FD0022002306460F46FCF7D5
:1058F0005BF800289DD0CFE7089A002A00F0D780F7
:10590000069A012A00F3BA800E9A002A00F0B280AB
:1059100003F23343079E049D049A1A440492059AA5
:1059200001211A442046059200F038FC0746002D5C
:105930000CDD059B002B09DDAB42049AA8BF2B466A
:10594000D21A0492059AED1AD31A0593079B1BB33A
:10595000089B002B00F0AF80002E13DD3946324645
:10596000204600F0DBFC18EE102A014607462046D0
:1059700000F02AFC18EE101A8046204600F056FB74
:1059800008EE108A079B9A1B06D018EE101A2046C4
:1059900000F0C4FC08EE100A0121204600F0FEFBD6
:1059A0000A9B002B064640F388801A460146204693
:1059B00000F0B4FC069B012B064640F381804FF0BB
:1059C0000008336906EB8303186900F097FBC0F108
:1059D0002000059B184410F01F0000F09280C0F1D9
:1059E0002003042B40F38A80C0F11C00049B034475
:1059F0000493059B034405440593049B002B07DD9A
:105A000018EE101A1A46204600F0E2FC08EE100AC2
:105A1000059B002B05DD31461A46204600F0D8FCD8
:105A200006460B9B002B6ED018EE100A314600F094
:105A30003FFD002867DA009B013B18EE101A009327
:105A40000A220023204600F013FB089B08EE100AF0
:105A5000002B00F0B181002339460A22204600F0D5
:105A600007FB029B002B074600F38E80069B022B50
:105A700051DC89E0109BC3F136034BE7039B5E1EAC
:105A8000079BB342BFBF079B0796F21A0A9BB6BF9C
:105A90009B189E1B0A93039BB8BF0026002BB7BF21
:105AA000DDE90323DDE903359D1A002334E7079E72
:105AB000049D089F3BE7079A67E7069B012B18DCCC
:105AC000BAF1000F15D1CBF3130393B92BF00043B8
:105AD0001B0D1B0583B1049B01330493059B01330C
